:20000000004000201569000001C9011001C9011001C9011001C9011001C9011001C90110E0
:1C00200001C9011001C9011001C9011001C9011001C9011001C901103FC9011089
:20003C002DE9F04F09AFADF13C0D08900A92388809911E46ADF81800101C08BF002000F0FE
:20005C007581017800274FF0010B401C4FF0FF39B846DA460A9061E1252940F05681017808
:20007C00401C0A902D2918BFADF8068004D10178ADF806B0401C0A9030291CBF4246434632
:20009C0004D10178401C5A465B460A902A29CDF800804D4617D1049330680A9BCDF808907B
:2000BC00C01C20F00300001D306050F8044C1978002C009403F101000A9018D5ADF806A0D8
:2000DC006442009413E044460AE0600000EBC4004018A0F130040A9801780094401C0A9092
:2000FC00302901DB3A29F0DBCDF8089004932E2929D10178401C2A290A9011D13168CDF83A
:20011C000880C91C21F00301091D316051F8045C002D48BF454601782B46401C0A9011E051
:20013C00454643460AE0680000EBC5004018A0F130050A9801782B46401C0A90302901DBB8
:20015C003A29F0DB02930AB1224604926C2904D04C2918BFADF8048004D10178ADF804A092
:20017C00401C0A900BA8CDF80C800FAB07906429059300F0828069297FD0BDF818C07529F5
:20019C006DD0782969D06F2965D070294ED063293ED0732922D00A98401E0A90099801281C
:2001BC001AD966490C68B5F1FF3F03D0A84288BF6D1C05D86FF00041814294BF0D1C099D3A
:2001DC00029508A80AA932466B46A04709993F18091A0398099165E0454617E03068C01C6D
:2001FC0020F00300001D306050F8040CBCF1010F014608B94FA00146079107F0CDFF0390E2
:20021C00B5F1FF3F4FD0A8424DD9039528464AE03068C01C20F00300001D306010F8040C33
:20023C008DF82C005D46039558463CE0082035680490E81C20F00300001D306050F8041C77
:20025C00082210230FA805F0ADF9401E079040210170079823E0082302E0102300E00A231D
:20027C003068C01C20F00300001D306050F8041CAA42BCBF2A1C04920DE03068C01C20F012
:20029C000300001D306050F8041CAA42BCBF2A1C04926FF009030FA805F084F9079005991E
:2002BC00081A0390009C241ABDF8065000945DB906E008A8202109AA07F074FA009C7F1CB8
:2002DC00641E0094F5D50398401EB0F1FF3F03900FD1BDF8060001281CD10098401E009080
:2002FC0018D408A8202109AA07F05CFA00987F1CF4E70798017809AA08A807F053FA079899
:20031C00401C079003987F1CDEE708A809AA07F049FA7F1C0A980178401C0A9000297FF4EE
:20033C009BAE089808B14146017038460FB0BDE8F08FC046286E756C6C2900C0988F0000AD
:20035C00BB482DE9F84F0025BA4CB849056094F8E200002800F06581012800F02F81B64E57
:20037C0002283CD0032840F05C8151F8250CD4F8B8100029A0F5C060C4F8D400B8BF494275
:20039C000028B8BF4042814226DA4FF08057D7F8A4014568B4F8BC0030214FF47F4208233E
:2003BC0000903046A847D7F8A4014568B4F8C00004214FF4F802122300903046A847D7F844
:2003DC00A401B4F8D070456820214FF440620A2330460097A847012584F8D8501CE151F864
:2003FC00258C08F00FF82F4600B901273946934F38680028FCD0B146012609F10409D9F8F0
:20041C002CA03E6009B108F003F8CAF30720C4F8BC0007F0F7FFAA4600B9B2463B68002BF1
:20043C00FCD0D9F800B0BAF1000F3E6001D007F0EFFFCBF38440C4F8C00007F0E3FFAA467E
:20045C0000B9B2463B68002BFCD0D9F81C90BAF1000F3E6001D007F0DBFFC9F38120C4F8A5
:20047C00D000B8F5C061C4F8B81000F09C8094F8D80068B9C4F8D410D4F8C000C4F8C800FD
:20049C00D4F8BC70C4F8C470D4F8D030C4F8CC30D4F8D400D4F8BC30002854BF02226FF0BE
:2004BC00010204F1C8010F6800EB40008018421000EB927207EBA2000860D4F8C810C4F888
:2004DC00C43000291CDD1E293CDDD4F8CC0030B93429B4BF15391E21C4F8C81025E02A29C0
:2004FC00BABFD4F8C8000B381E20C4F8C800D4F8C4003F28B4BF401C3F20C4F8C4001FE02A
:20051C00D4F8CC00032812D011F10B0FC6BFD4F8C8000B30301CC4F8C800D4F8C400002822
:20053C00C4BF401E051CC4F8C450032508E011F1150FC6BFD4F8C8001530301CC4F8C80069
:20055C00C4F8CC504FF08057D7F8A401B4F8C43030214FF47F424568374800930823A8474F
:20057C00D7F8A40104214FF400321123456832480096A847B4F8C860D7F8A40104214FF4C1
:20059C00F802122345682C480096A847D7F8A40120214FF440620A23B4F8CC6045682648B0
:2005BC000096A84701E084F8D85040F2FF50404502D8801C40452FD2082030E051F8251C51
:2005DC001F4F4BF2F5204843060A3868C0F3814001280CD11B4800680068804706F094FB0B
:2005FC0007F01CFF3111C010484306EBE03694F8E50030B91448006820F07F403618760870
:20061C0001E084F8E5501148310C0660012741600F4D8760287808B90B2000E0052084F817
:20063C00E40001F055FCBDE8F88FC0462D400C402C500C401C03002000A00C4000800C40CE
:20065C00B43F0050EC010010102009403C600C40A98E00002DE9F84FDFF8B4920F4604468D
:20067C00F80B80F00981A54EDFF88482B80F80F0BA80B80880F0AE803809C0F02F810820F9
:20069C0007F0E4FE002840F0A080802007F0DEFE002840F09A80684604F0A8F8012803D1C9
:2006BC000098002800F0918090480078002840F08C8000250124E8B207F028FD48B1837AB3
:2006DC003BB1847290F9090004FA00F0C0B206F019FD6D1C032DEED345460320287405F164
:2006FC00AC0007F083FF83480168002398461A46036050F8081C804940F8088C05F1340096
:20071C0007F07EFF404602F05AF93068006B8047A968401A010BA869C1F1FF3282422CBF9A
:20073C0008444FF0FF30A861287F20B1E868A969B1EBC02F25D907F025FA414600B12146C2
:20075C00081C1BD06E4840F60901018043464380417B04F00F0221F00F010A434273017B4B
:20077C0003F00F0621F00F0146EA01020273436007F09AFD418811F4406FFBD02C774346E7
:20079C00AB6106F0DFFA5F48444641460460022007F00AF9022006F081FC112003F0E8FA8F
:2007BC00287818B96868383007F032FF5648007810B90E2003F0DCFA687F18B16C770520BE
:2007DC0006F06CFC514868612C7405F0BBF927F0080783E002F0B0FD45467435286808B947
:2007FC0027F002077AE007F005FFB3468246DBF85400016804208847D8B1207CC8B14546FB
:20081C0008352868A8B10646DBF80000E568006B8047801BE060000BE060A84202D24019BB
:20083C004008E06040F6C41181422CBFB0F5FA7FE160504600F06EF806F08AFB90B1A56946
:20085C0020466FF4807100224FF00073A847464606F16C052868002808BF47F0020701D07B
:20087C0005F070F92046646900214FF080630A46A04727F0005731E007F0BCFE49460E681C
:20089C0046B306F1280106C90A234FF0E0450B40154008BF002B1DD106F1280191E830007A
:2008BC0006F1280393E8060006F12803AA43A14383E8060000F02EF8B16869B1002D08BFD8
:2008DC00002C09D030692246B6F93C10B4682B46A04701E000F01EF827F4804727B1484658
:2008FC003946503007F09CFEBDE8F88F61090020C807002014100440155F00008C0100102E
:20091C007414002000000460268F00009539000048080020DFF800F061C001102DE9FE4F60
:20093C0005467B48002400680094C00905D37948007810B9202006F019FC012D40F0E280BF
:20095C00DFF80092D9F8DC00012840F0D8800220C9F8DC0007F058FA012006F007FC5FEA49
:20097C00000805D00120C9F8DC0007F059FACBE007F052FEA34602906748684DC0F800B03D
:20099C00A86A016801208847012804D1584604F0ADFE012000906248624FC0F800B0386881
:2009BC00112007F04DFD00B10124102007F048FD08B144F002040F2007F042FD08B144F022
:2009DC0004040B2007F03CFD20B12868564E016B308888470A2007F033FD20B12868534E4D
:2009FC00016B308888475248012606602868816944F0200088474F48066007F01BFD00F028
:200A1C0001010191400814D2286A81684A4888478246BAF1040FF7D0BAF1010F04D1286AAD
:200A3C0042684548032190474449086820F003000860584600F08CF82B683868986B8047E1
:200A5C00019801280CD0BAF1010F04D1286A42683948314690473949086840F003000860B4
:200A7C002F48066028684169204688470B2007F0E7FC20B128682C4BC16A188888470A206D
:200A9C0007F0DEFC20B12868284BC16A18888847274806600322C9F8DC20264BC3F800B068
:200ABC002868416B204688470128F9D13868042006F05CFB04461848066038681448006831
:200ADC008009FBD30098012802D1304604F00EFE07F09EFC082006F049FB07460298C9F8FE
:200AFC00DC6000F031F81648008804F0B3FC07F097F957EA040018BF4FF0FF3804E06FF0A0
:200B1C00040801E06FF001084046BDE8FE8FC04614100940040400200C400940B8010010B3
:200B3C00000222432C2009400C8C0000088C000028200860800104430040034024220840E8
:200B5C00A48E00001C030020DFF800F005B301102DE9F84FDFF804B20746ABF13500DFF899
:200B7C00F0810068800880F0E28075480068006880477E490831D1F8009000254FEA297181
:200B9C005FEA995201F101010AD2C0F13E0210F10A0F4FEAE202D8BF08229142B8BF111CD5
:200BBC00684BD3F87C21C2F30462162AA8BF203A1B68C3F30443162BA8BF203B9A46521815
:200BDC00162A05DA12F10A0FB8BF6FF0090200E015225D4B5D4E02F01F0141F4F85119804A
:200BFC00316811F0030F18BF0125C90828BF45F002050FB145F00405434693F90710411AB7
:200C1C00052904DA9979A94208BF99886FD0DFF844E10F28A0F10F0829DB08EB0011A1F113
:200C3C00F0084FEA28210091072984BF07210091062988BF06215EF821600424774604EB19
:200C5C0081043C594FEA950CA41BEE0804F0FF0124BFC4F3072631446F08AE0824BFC4F3D8
:200C7C00074631446E0828BF01EB146104E000214FEA950C6F080091009C5EF824E05FEAB2
:200C9C005C060EF0FF0424BFCEF3072634447E0824BFCEF3074634446E0828BF04EB1E64CF
:200CBC00009E89B2A8EB06267143803104EB1124AAEB02010029D8BF0121342209F0FF0728
:200CDC004A4391B24FF6FF727943B1FBF4F18A4238BF111C802889B2998005DA10F1800FCA
:200CFC00B8BF6FF07F0000E07F20D8719D711A4800681F2918604FF0000008D340F2FF12C6
:200D1C008A4206D24908401C8A42FBD301E01F219980134F0F39090940EAC10047EA0001B9
:200D3C00CBF8FB1F0026CBF8FF6FBDE8F88F0D490D4F434608200F609B1D1870BDE8F88FF9
:200D5C00EC0100103C1100506E62084024220840301500209C1300500820094035000940E4
:200D7C0000E7A48030100940FDFDA400AC3F00502DE9F0411C4615468C4208BF854282BF49
:200D9C0000230022E5E0002C08BF002D0AD100290EBF00286FF000006FF0000100F0E1F88C
:200DBC00BDE8F0815FF000085FF0000E002C08BF8D429CBF2C1C0025070C47EA01470E0C1D
:200DDC00B44208BFBD429EBF5FEA044444EA15445FEA0545070A47EA01670E0AB44208BFB4
:200DFC00BD429EBF5FEA042444EA15645FEA0525470847EAC1774E08B44208BFBD4200F234
:200E1C009380870847EA81778E08B44208BFBD427CD8C70847EA4177CE08B44208BFBD42FB
:200E3C0066D8070947EA01770E09B44208BFBD4250D8470947EAC1674E09B44208BFBD42E8
:200E5C003AD8870947EA81678E09B44208BFBD4224D8C70947EA4167CE09B44208BFBD4230
:200E7C000DD8E60146EA5566EF01B14208BFB84201D3C01BB14158EB08085EEB0E0EA601FB
:200E9C0046EA95664FEA8517B14208BFB84201D3C01BB14158EB08084EEB0E0E660146EAA2
:200EBC00D5666F01B14208BFB84201D3C01BB14158EB08084EEB0E0E260146EA15762F015C
:200EDC00B14208BFB84201D3C01BB14158EB08085EEB0E0EE60046EA5576EF00B14208BF5F
:200EFC00B84201D3C01BB14158EB08084EEB0E0EA60046EA9576AF00B14208BFB84201D37B
:200F1C00C01BB14158EB08084EEB0E0E660046EAD5766F00B14208BFB84201D3C01BB1419B
:200F3C0058EB08085EEB0E0EA14208BFA84201D3401BA14158EB08085EEB0E0EA34208BFD4
:200F5C00AA423EBF2D0A45EA0465240A89D3734642461E4617460B46024631463846BDE8FE
:200F7C00F0817047B0B51E4C241FE06F04F16C0570B32869806906F03BFF07462869002398
:200F9C003A4605F0FDFEB80806D20FB328694FF48041C4F8800017E02869104F8269396827
:200FBC0022F00202914339602969CA6957F8083C23EA020147F8081C296905F1080006F041
:200FDC005EFD00200221286104F1D00007F028FB03F02AFA03F0DAF8B0BDC0461410044038
:040FFC00CC070020FE
:20100000B41200001810000015AB0110FDB301106DC00110FDAE011099B5011000000000F7
:08102000000000002D0000009B
:20102800B01200003C100000B1C00110A9BF011067C0011069B80110000000000000000035
:041048003000000074
:20104C00B012000060100000BDC00110CDB30110D9BD01106DB3011000000000000000005B
:04106C00310000004F
:20107000000000002007002004000000000000000000000020000000E8C901103000000003
:2010900028100000280700200400000000000000000000000C000000D8CA011018000000DE
:2010B0004C1000003007002004000000000000000000000024000000F0CA01101800000062
:2010D00000000000380700200400000000000000000000001000000018CA01102C0000006E
:2010F0000010000048070020040000000000000000000000200000006CCA011024000000D2
:20111000FFFFFFFF500700200400000000000000000000002800000090CA01102400000091
:20113000FFFFFFFF580700200400000000000000000000001400000008CB01101800000010
:20115000FFFFFFFF6007002004000000000000000000000058000000B4C9011034000000DE
:20117000FFFFFFFF680700200400000000000000000000001000000020CB011018000000AC
:20119000FFFFFFFF700700200400000000000000000000001C000000B4CA011024000000D9
:2011B000FFFFFFFF780700200400000000000000000000003800000044CA01102800000001
:2011D000FFFFFFFF800700200400000000000000000000005400000078C901103C00000076
:0811F000010000008C8F0000DB
:0411F80001000000F2
:0411FC0000000E00E1
:0412000000000F00DB
:0412040032000000B4
:0412080001000000E1
:04120C00B006002008
:0412100000020000D8
:0412140000000000D6
:0412180001C90110F7
:04121C0000000000CE
:0412200000000000CA
:0412240008000000BE
:0412280000002200A0
:04122C000005002099
:0412300000000000BA
:0412340000000000B6
:0412380008000000AA
:04123C001406002074
:0412400000000000AA
:0412440000000000A6
:04124800080000009A
:04124C00000000009E
:04125000000000009A
:041254000000000096
:041258000000000092
:04125C00010000008D
:0412600068050020FD
:041264000600000080
:041268000100000081
:04126C00300400202A
:04127000000000007A
:041274000000000076
:041278000002000070
:04127C00000000006E
:02128000290043
:02128200010069
:02128400250043
:02128600300036
:02128800310033
:02128A002D0035
:02128C0001005F
:01128E00015E
:08129000030000003C8F000088
:0812980000000000000000004E
:0412A0000000010049
:0412A4000000030043
:0412A80013C401105A
:0412AC002B80000093
:0412B000B812000070
:0412B400B81200006C
:0412B8000000000032
:0412BC000007002007
:0412C0006182000047
:0412C4002000000006
:0412C800C08E0000D4
:0412CC008C8D000005
:0412D00029C101101F
:0412D400FF5D0000BA
:0412D8001765000096
:0412DC00A1C7011095
:0412E000A3C701108F
:0412E4000000000006
:0412E800F68E00007E
:0412EC00448C00002E
:0412F0005C8C000012
:0412F4002C8C00003E
:0212F8000200F2
:0212FA000900E9
:0212FC000100EF
:0212FE000000EE
:0113000001EB
:04130400DD81000087
:04130800DD6F000095
:04130C00557A00000E
:041310002572000042
:041314004D70000018
:0413180071670000F9
:04131C00F94D000087
:041320001384000032
:04132400CD5F000099
:0413280015C70110D4
:04132C0025C70110C0
:201330002DE9F0430546880FADF1140DC0F0D2806A4C201D006840688768C668406800B138
:201350008047002F08BF002E08D006F0DBFE07B1B84706B1B047624806F068FA614806F0E5
:20137000A9FF012001F031FB5F4A40F60A0CA2F800C000205080117B00F00F0321F00F0189
:201390000B4313735060517B4FF0010808F00F0721F00F0147EA01035373AB686E7C5880A6
:2013B0001988A1F60201C9B141F21E07C91B15D041F6E677C91B012920D8597E012E60F354
:2013D0008201597606D0198B21F47C7141F43471198313E0198B60F30911F9E7597C012ED1
:2013F00060F38201597405D0198A21F47C7141F4347102E0198A60F309111982D5F80890F4
:20141000687461464E4600E03E46776817B13B889942F9D17260737B00F00F0723F00F0347
:201430001F437773E76E3FB1FB681B88CF1F9F4224D0891F994221D02F8C07B3686205F199
:201450002003588095F82C1000F00F0721F00F010F4385F82C7095F82D1008F00F0721F03D
:201470000F010F4385F82D705360517B00F00F0721F00F0147EA0100507300E0A0604846D7
:20149000694606F035FB684606F004FF06F03AFE16486061607F80B91548006801684046A7
:2014B000884701280FD0707B08F00F0120F00F00014371730F4F676105E005F02DFB0028BB
:2014D000FBD007F0A7F8484606F0F4FE4946404606F070FA05B0BDE8F083C046C8070020EE
:2014F0000100070601010E047414002071060000E0010010816000002DE9FC4F83F00043B2
:2015100001E02DE9FC4F1F03FF0847EAD2574FEA42284FEA43095FEA595906D147EA080AB9
:201530001CBF00210020BDE8FC8F57F000575FF4E06E1EF1FF0EF14505D14FF00000190D83
:201550000905BDE8FC8F002B05D55FF0000AD8F100086AEB07070C03E40844EAD0544FEA25
:2015700040254FEA4106760D08D144EA050A19BF00210020191C101CBDE8FC8F44F00054AB
:20159000764504D10020090D0905BDE8FC8F002904D55FF0000A6D426AEB0404B6EB090E18
:2015B00008D5A2463C465746AA464546D046CEF1000E4E46BEF1360F5CBF4FF0000B23E0E9
:2015D000BEF1000F04BF4FF0000B1AE0CEF1390ABAF120092EBF08FA09FB07FA0AFB4BEA32
:2015F000080BDEF1200A07FA0AFA38BFBA4647FA0EF72DBF28FA0EF8AEF1200E4AFA0EF862
:20161000D04415EB08057C4154EA050A02BF00210020BDE8FC8F002C58BF4FF0000A06D5F6
:201630005FF0010A5FF0000E6D426EEB0404A6F101066D006441FAD515F4806E11D005F483
:2016500080794BEA090B15F5806554F1000428BF761C0BD205F400795BEA090B08BF25F4FF
:20167000006525F4E0656D0044EB0404B61CDEBF00210020BDE8FC8F5FF4E06E1EF1FF0E56
:2016900076450AD34FF0000013F00043FF21C900C91D09051943BDE8FC8F270547EA153012
:2016B000210B41EA065141EACA71BDE8FC8F70472DE9F04FADF1240D079001F021FA5F48B1
:2016D000007806F09FF85E4D0024012806D90C3804D0401E0ED0401E09D006E006F082FB3A
:2016F000022804BF01210C1C06D0696805E005211F2401E0032107246960524A1068C0F3EE
:201710008150012806D152F80C0C0127020E07FA02F0044306F0C6FD05F1440AFF2253465D
:201730004018401E471C28607F1E03F8012BFBD1079A1268002602F0FF03FE2B1DD0DDF848
:201750001CC0964633460EF0FF07FF2F0ED0B84205D3B94203D80122BA40144201D002202A
:2017700069E016430EF0FF020AF802305CF804EF5B1C0EF0FF07FE2FE7D1092002F05CFB6B
:2017900007980121A86005F1280005F039FF00274FF0010BB9462846804600F198050BFAED
:2017B00007F0044216D1064204BF07F0FF0141F4C04104D01AF80700079951F8201022484D
:2017D00001F048FDF8B24FF0FF3106F0B1F9C5F8009001E004202860D8F800007F1C2D1D7B
:2017F0008742DCD904A806F044FD184C184A2078102104AB059008F10C0005F04DFA6846B6
:2018100006F060FDCDF80C906A4660681149029008F1640005F0D8FA0F4951F80D0C20F4AE
:20183000F85040F4005041F80D0C0C4FC1F8FFBF4846C7F800B009B0BDE8F08F5915002040
:2018500008020020B43F0050007FC767488F0000197D0000E96A00000D30094008000940C7
:201870001FB58DF80A0041F60500ADF8080000208DF80C009DF80C0003281CDA9DF80C00F8
:201890009DF80C30C10001EB001101209840554B534A1B78184202D0BDF8080001E040F6E0
:2018B000010050529DF80C00401C8DF80C009DF80C000328E2DB9DF80A00012803D09DF82E
:2018D0000A00022806D103F081FF474900F57A60086030E09DF80A00032812D1404C04F076
:2018F0006AFE49F64042B0FBF2F15143401A3F49098840F6C41202FB0101A0684018A060AF
:2019100019E09DF80A00042815D103F05FFF36490860334C04F04FFE49F64042B0FBF2F1C6
:201930005143401A3149098840F6C41202FB0101A0684018A0602E49002008802849002083
:2019500048832749002048864FF0004000218DE8030029482A4B027826482149006802F0A4
:2019700079F8264908802548B0F90000002833D49DF80A0001282DD02248007850B303F00D
:2019900025FF19490968081A03901E4800784FF47A624FF47A6102FB00100399884219D80C
:2019B0001948006806F07EFA1848039900688000B1FBF0F00390154800684FF47A71B1FB3E
:2019D000F0F11048039A007801FB10210E48006806F0FAF9002000E0012000901FBDC04642
:2019F00048130020CC05002050130020CA0500204A130020A8070020C8050020AC070020ED
:201A100041490000CE05002000150020888F00002DE9F043044658480E4601681F4615463D
:201A3000ADF12C0DB6B1ADB130784FF0010808FA00F001420ED01046002103F097FF666031
:201A5000A56006F0DDFD4D4D8146287820B14846FEF766FF00208CE001F052F8484908681F
:201A700040F00200086007A806F02CFC454E4649707807AA099005F1D00005F0A5F94349B6
:201A900005F5827007AA05F09FF907A806F0F1FB192107AB30783E4A089005F1340005F0A8
:201AB000FBF83C4A05F150001A2107AB05F0F4F83949002205F18800134604F035FC374969
:201AD000002205F1AC00134604F02EFC344A05F120000421002305F0D1FEB078012802D1F7
:201AF0000E2002F0A9F905F1740006F0EDFA05F16C0006F0E9FA00262E772E74AE610720EF
:201B100085F898016E770523AE60264AEB602B781670581C2870244969614846FEF700FFDB
:201B30001FB9684606F0E4FA6F46386841462060388A617460827868002806BF40F6C4108F
:201B500021742674E0601948A0616061F86800B1A061B86800B160615822314604F1200039
:201B700003F093FB04F13800314605F049FD6C6020460BB0BDE8F083D4210840C8070020C4
:201B900000200940248F00006D7E0000353B0000155F000045580000817B0000357D0000FF
:201BB0001965000058150020953900006332000000B5ADF1140D06F07DFA039003997D20FA
:201BD0004843400903904D490398C0F3072008704B49039800F0FF0008704B4800880A212F
:201BF000B0FBF1F047490870474800880A2290FBF2F15143401A05F07BFC3EA20CCA01F08F
:201C10002DFA04F0A1FE41490870424800880A21B0FBF1F03E4908703E4800880A2290FB6B
:201C3000F2F15143401A05F063FC32A20CCA01F015FA04F089FE38490870394837490068E8
:201C5000C0F307600870364836490068C0F307400870334834490068C0F3072008703048E1
:201C70003249006800F0FF00087006F0D5FD31492F4A0968B2FBF1F1B0FBF1F002902E49BA
:201C90000298C0F3076008702C490298C0F3074008702B490298C0F307200870294902981B
:201CB00000F0FF0008702848006809A30321002205F03FFD1A4800680090029801902248C3
:201CD00000680421002207A305F033FD05B000BD544C4D2064617461207570646174657347
:201CF0003A00C046436E743D25642054696D653D256400C09A99999999993940C61400206A
:201D1000C7140020C81400204E150020C9140020D214002026150020D3140020CA140020D6
:201D3000DC060020CB140020CC140020CD140020A0860100888F0000CE140020CF1400204E
:201D5000D0140020D1140020D80600200EB58DF801108DF800006048006830B94FF0004016
:201D7000002104F045F85C4908605B4800680021002238A305F0DDFC62E057480068002193
:201D9000002238A305F0D5FC534800680221002237A305F0CEFC5CE09DF8010001280ED1B5
:201DB0004D480068002100222EA305F0C2FC4A4800680221002233A305F0BBFC49E04648D7
:201DD00000680021002227A305F0B3FC424800680221002231A305F0ACFC3AE03E4800682A
:201DF000002100221FA305F0A4FC3B480068022100222FA305F09DFC01208DF804009DF86A
:201E1000040030B39DF804000028FBD121E0324800680021002213A305F08BFC2E48006808
:201E30000221002226A305F084FC01208DF804009DF8040068B19DF804000028FBD108E03E
:201E50009DF80000801EA7D0801E96D0401EC5D0DDE70EBD3E3E3E535441434B204153530B
:201E7000455254002A2A2A4552524F522A2A2A003E3E204F5554204F46204D454D4F52599F
:201E90002100C0463E3E20494E5445524E414C204657204552524F522100C0463E3E20499F
:201EB0004E5445524E414C204552524F522100C03E3E204943414C4C2041424F52542100B9
:201ED0003E3E2044454641554C54205350494E4C4F434B2100C046C0D80600202DE9F84398
:201EF000614C5A4D5A4EDFF870815E4F94F8E4100846401E0B2864D8DFE800F07B2C43061F
:201F10002343062343067664042907D001220A2945F8212C14BF0220032004E0202045F8A2
:201F3000210C0120024684F8E200002045F8390C0827C5F8FF7FC5F8F37F45F8392CBDE81B
:201F5000F883052914BF09200620002784F8E400376075E094F8E170383D0120002FC5F8D4
:201F70001B0004BF0620002102D00021F160032084F8E400032045F8010C31603068800847
:201F90005ED294F8E4103348012703290ED00068456800216022052300914046A84794F862
:201FB000E400062814BF0A200720CFE700684568002160220523022000904046A8470420FA
:201FD000C4E7FEE72548264F0026012506600E203D6001F0D3FE022005F066F884F8E4501B
:201FF00084F8E360BDE8F883002038600C25786024E04FF08059D9F8A0010168202088472B
:202010002C3D0F2045F8010C41F61D56C5F80360D9F8A401466800214FF4C07207230225F9
:2020300040460095B047D9F8A401C66800214FF4C07207234046B0470120386084F8E45034
:2020500004F1780006F0D6FABDE8F88339400C4038600C40A401001000A00C402C500C400B
:2020700004800C4034600C401C03002000B5ADF11C0D00928DF805108DF8040000208DF88B
:2020900006009DF80400072801DA009808B902209EE09DF80400062813D19DF804004D49B4
:2020B00011F820009DF80510884201DA18208FE09DF8040006280FD19DF8050046490870A9
:2020D0000AE09DF80400434911F820009DF80510884201D018207BE09DF8040040493F4A35
:2020F00011F820009DF8041012F82110884215DD9DF80400394911F82000009909788842DF
:2021100008DC9DF80400364911F820100098007888424CDD18208DF8060048E0009800886C
:20213000ADF808003DE0009890F9000003F0D0FDADF80800BDF808004FF6FF71814203D12E
:2021500018208DF8060032E026480068022104AA03F0BAFF9DF8100058B11020ADF81800AC
:20217000BDF80800ADF81A001E48006806A906F02BFABDF808001C4908801A4800680022A5
:20219000012101F035FD12E0BDF80800A02804DBBDF80800B0F5804F09DD18208DF80600BA
:2021B00005E09DF80400401EBDD0401EECD09DF8060058B99DF804000C499DF8052011F82F
:2021D00020000B494018009902F064FB9DF8060007B000BD798E00003A0600207A8E0000BB
:2021F0007B8E0000A807002002060020788E0000C80500200EB501910090009805F0D2FF99
:202210008DF80A0000208DF808009DF8080004281CDA9DF80800554951F8200005F0C2FF59
:202230008DF80B0051499DF808009DF80B2051F82000009905F072FB40B19DF80800401CB9
:202250008DF808009DF808000428E2DB9DF80800042801D1002087E09DF80800019908708A
:202270009DF80B100098401800909DF80A009DF80B10401A8DF80A0000208DF808003EE01B
:2022900000208DF809009DF809000E281FDA9DF80900374951F8200005F084FF8DF80B0024
:2022B00033499DF809009DF8082051F82000009989189DF80B2005F031FB40B19DF8090024
:2022D000401C8DF809009DF809000E28DFDB9DF809000E280EDA019800999DF80820401C6F
:2022F00002F0D8FA9DF80800019A9DF80910401C11540AE09DF80800401C8DF808009DF85E
:202310000A009DF808108842BADC9DF80A009DF8081088421DDD9DF8080001999DF8082092
:202330009DF80830801C4018009989189DF80B2089189DF80A20D21A9DF80B30D21A02F0D8
:20235000A9FA9DF80B109DF80A00401A801CC0B20AE0019800999DF80A20401C02F09AFA56
:202370009DF80A00401CC0B20EBDC046C8060020C80400202DE9FF4104466668A7680D4665
:2023900006F03EF93178012903D1FEF7C9FA00208EE001213170FEF7C3FA2878707068783E
:2023B000B07068687060A868B060E868F06028693061287D3075687D7075A87DB075A869FC
:2023D000B061287F3077687F7077A87F4FF0000843461D4686F82851B07786F82951C6F892
:2023F0002080336375627563B562B56386F82C5086F82D50786801F01FFD204602F0E6FA9F
:20241000204602F02FFB60B9386805F081FB786801F0B4FC06F0F4F83570FEF781FA2C4616
:2024300045E0684605F025FF0094387B224A0190B9686B4606F17C0004F02EFC684605F056
:2024500041FF00941D4938696A46029006F1980004F0BAFCB07830B906F1CC00294605F0DE
:20247000CFF817483061707830B906F1E800294605F0C6F81348F060684606F04DF8019599
:202490008DF800501049029406F582700A226B4603F04AFFB969FA6906F13C0005F0BDFEFA
:2024B0000A4A06F168000421234605F0E7F920460090BDE8FF81C046E1240000A15D0000D2
:2024D000BD850000A585000001680000558300002DE9F84F8046D8F808603068D8F8045028
:2024F000076CDFF830B14764AB6B6A6C286C17F4F06F1946A0EB020934D1F8091ED27809A0
:2025100074D3B1B196F821205846801D845C601E814294BF1C1C641E4046214604F0D1FF19
:20253000A86B001BA86361D105F19800012106F07DF84046494605F0DDF957E00029F8D0FD
:20255000404604F0BEFF95F82D10A86311B900284CD101E00020A86305F19800012106F09E
:2025700065F843E0F80A20D24FF0000A544602E0AB6B5B1EAB6393B14046012104F0A1FFF5
:202590003068446814F00F04C0F804A0F0D0286B401E2863686B401E6863A86BE8B905F192
:2025B0009800012106F042F813E0306844680022202904F00F044260CCBF4FF0200A9A4602
:2025D0004046514604F07DFFCAF120008145C8BF81464946404605F08DF9EC77404604F002
:2025F00051F8726A12B1404621469047B8090FD3A96A69B10F46404604F0A8FFA86238B9DE
:2026100096F820205946895C4046C91903F004FFBDE8F88F808C00000EB5009080E048497E
:2026300001200870474801680020884746480078012840F0838045480078012803D1032083
:20265000FFF70EF97AE00420FFF70AF976E03C49032008703B480168152088476EE03849C1
:2026700004200870374801680120884736480078012863D135480078012803D10320FFF778
:20269000EFF85BE03248B0F9000000280BDD3048B0F900102F480068002205F088FE2C49B3
:2026B0006FF0010008800420FFF7DAF846E024480078032842D103F089F801902648016812
:2026D000019800F57A60814207D91F480078012834D10520FFF7C4F830E01C4800780128E6
:2026F0000ED1174904200870164801680120884715480078012821D10320FFF7B1F81DE089
:2027100011480078012819D10220FFF7A9F815E00D480078012811D10120FFF7A1F80DE0A2
:202730000098407A801E92D0401E3FF478AF401EBDD0401E93D0401EEAD0FFE70EBDC04604
:20275000A7070020FC140020A607002088070020AC070020A807002050130020ADF1080D17
:2027700000208DF800009DF80000032838DA9DF80000374AC10001EB00119DF80000253014
:2027900050549DF80010C80000EB011031494018C17B21F07F01C1739DF800102E4AC80064
:2027B00000EB01102D4911509DF80010C80000EB011028494018017B21F0100101739DF85D
:2027D0000010274AC80000EB0110002111509DF80000401C8DF800009DF800000328C6DB4B
:2027F0002049087820F00F0040F002000870194991F83C0020F00F0081F83C001A49087839
:20281000002262F30300087019490020086017490860184A1078022120F00F00084310700D
:20283000154A107861F3030010701449087820F00F0040F0010008701248114908601348AE
:202850001149086012490020086002B07047C046561300204813002058130020340600206B
:202870005C130020541300206C13002068130020801300206D130020551300208513002065
:202890004C1300206013002064130020781300207C1300202DE9FC4705466E68D5F8088056
:2028B00037780FB1B76B1FB14FF0FF30BDE8FC8731630024F477171C74631BD006F13C09BD
:2028D00005F09EFE82466946484604F004FA00281ED45046FEF724F89DF80000316B0870F6
:2028F000306B736B7F1E00F10100306303F101007063E5D17078726B316B0128A1EB020196
:20291000316303D1F36828469847726B144659E0B763D8F80010086B40F400700863D8F8DB
:202930000010886B40F4FA6088635046FDF7F8FF06F5947005F04CF9707806F5947768BB40
:2029500005F05EFE96F82D1069B1716B59B1B16B49B1B463FDF7E4FF06F5947005F028F932
:20297000706BBDE8FC87FDF7DBFF716806F1E805284605F05BFC0028F2D0B4632846214629
:2029900005F054FC0028EBD0384605F011F91027716B306BF777401A3063E1E705F030FE8E
:2029B00096F82D1061B1716B51B1B16B41B1B463FDF7B6FF06F19800012105F037FE01E0C2
:2029D000FDF7AEFF2046BDE8FC87704700B5ADF11C0D00900020019000208DF810000098F7
:2029F000001D0090FFE7009800F003008DF814009DF8140028B19DF814100098401A001DC6
:202A1000009005F0DEFA3A4908600098102803D838480068029002E0374800680290029844
:202A3000006803900398000807D3039880F00040039000208DF810001CE09DF8100080B1A9
:202A500002980199026808688018086001990098096888420ED80198029002980068039045
:202A700015E000980399884211D901208DF810000298019003990298401802900298006866
:202A9000039003980028CDD100200290FFE7029830B300990398401A03900398042811D351
:202AB00000990298401805900398059908600098029940F0004008601049009A0868801A3D
:202AD00008600AE002980D4902680868801A08600299086840F0004008600298001D02909C
:202AF0000348006805F056F9029807B000BDC046E0140020E4140020E81400209C060020B1
:202B10002DE9FF47484C94F8E700002876D13E4E01273C48F57C84F8E770736884F8E650CA
:202B30000068C4F81031C0F3801084F8E800684605F0F2FC002504F10C0001956B468DF8F6
:202B50000050324902952A4603F0EEFB304904F130006B462A4603F0E7FB2E4904F1540063
:202B70006B4681462A4603F0DFFBB16838468847DFF8B0802848327D08F104030078284E16
:202B90001868C0F3815A22B1BAF1030F04D184F8E170BAF1030F17D0BAF1020F14D0BAF1F6
:202BB000010F0ED0022004F0CDFB1C480068016804208847012804D030683221B1FBF0F19C
:202BD0000DE004F01FF912E0022004F0BBFBBAF1030F0CBF4FF47A7142F210713068B1FB7F
:202BF000F0F1484605F004FD484605F003FD40460068C00802D2284604F0A4FB00200090A2
:202C1000BDE8FF8714100940948E0000DB370000E9440000E154000059150020E0010010F7
:202C300034120020B03F00501C0300200EB58DF8040000208DF8050005F0A8FC00903E49FA
:202C50009DF804000978884255D1009805F028FC9DF805006FE09DF804003749087056E0F9
:202C70003648006805F01EF933480078032801D103F0DAFA9DF804002F49087047E003F0F8
:202C9000B5FC8DF805009DF8050000283FD12C48008888B12B48008870B12B4800684FF4A8
:202CB0007A71B1FBF0F0264909884843642141432248006805F088F89DF804001E4908703A
:202CD00025E09DF804001C4908701F4800684FF47A71B1FBF0F01B49098848436421414357
:202CF0001648006805F070F803F09EFA0FE002208DF805000BE09DF80400401EABD0401EC0
:202D1000AED0401EBBD0401EDBD0401EEFD19DF8050058B9084800788DF80800012102AA47
:202D30000123012002F074F98DF80500009805F0B7FB9DF805000EBDA0070020481500206D
:202D5000A2070020A4070020888F00000EB58DF800009DF8000038B19DF80000102803D052
:202D70009DF8000020284FD132490320087032481422002102F089FA2AE0304900200870CF
:202D900014208DF808002D4801902D48006800221EA3062104F0CDFC22E02A49102008709B
:202DB00029480078801C8DF80800264801902448006800221AA3062104F0BBFC10E0234911
:202DD0002020087010208DF808002048019007E09DF800000028D0D01038DED01038EED035
:202DF00001999DF80820144801F054FD11499DF808200878801808700E48154A00780830C2
:202E1000C1B20620FFF732F90EBDC0464564647973746F6E6520554944204D6F646500C001
:202E30004564647973746F6E652055524C204D6F646500C07B0600207F0600209C14002045
:202E5000D8060020B01400205A150020C4140020740600202DE9F04391460A68D9F80040BC
:202E70001678804600271D463846ADF1140D531C242E0B605BD112F8016F5B1C4C2E0B60F9
:202E90000ED1AA68E41C24F00304241D54F8040C414602F04DFF2968EF600127091A296000
:202EB000462E1AD1E41C24F00304241D54F8040CE41C029024F00304241D54F8040C00277A
:202ED00041460390AA68ADF8047001A801F00CFA2968EF600127091A2960532E27D1E41CD0
:202EF00024F00304241D54F8040CE861C9F80040288B0090A968EA69D8F800004B46FDF7C4
:202F100095F8D8F80040002754B1A968002902DD8142D8BF481ED8F800100918C8F800102E
:202F3000D9F800402968EF600127091A2960662E0AD12B8B23B9E41D24F00704083403E07C
:202F5000E41C24F00304241D1FB9E9690E700127EF60C9F8004005B0BDE8F0833EB5009095
:202F70002D480068C00801D3022054E000992B483CC93CC03CC93CC01EC980E81E00284986
:202F9000FF2008602749012008602848264902880968274801F07EFC2648006880472649E1
:202FB00042F22B000860254942F60B30086024494FF4807008602349002008602249012069
:202FD00008602249012008602149012008602048006805F0E7FA01900F49086840F004005F
:202FF00008601C481B49006820F07C5040F034500860019805F05AFA1748006804F0BAF9E1
:2030100005F09EFA05F0ABFA04F0CCF905F09DFA05F0AFFA00203EBD10100940901300204F
:2030300000600C4054600C40A01300209E13002000000E40AC13002000500C4004500C40C7
:2030500000100E4034500C4018500C4008600C4048600C40003009402C2009402DE9FC4175
:2030700091EA03084CBF4FF000484FF000084FEAC32545EA52554FEAC2264FEA43077F0DBA
:2030900011BF45F0004500210020BDE8FC815FF4E06E1EF1FF0E774555D04FEAC12343EA8B
:2030B00050534FEAC0224FEA4104640D11BF43F0004300210020BDE8FC81744543D0E419E1
:2030D000A3FB0501A3FB06E7A2FB06631EEB030E57F1000751F10001A2FB05631EEB060EDD
:2030F00057F1000751F10001FF1851F10001C01951F100014CBF4FF4806E4FF4007E10EBC0
:203110000E0051F1000148BF641C01D4400049415FF44077FF37E41BDEBF00210020BDE866
:20313000FC8117F58067BC420DD24FEAD02040EA41504FEA41014FEA113141EA045141EAAD
:203150000801BDE8FC810020FF21C900C91D090551EA0801BDE8FC8181F000412DE9FC41CC
:203170004FEA01244FEA41052D0E04D1002C18BF0020BDE8FC8144F00044FF2D5ED04FEA02
:203190009404002948BF64424FEA00224FEA40031B0E05D1002A14BF0020081CBDE8FC8178
:2031B00042F00042FF2B4AD04FEA9202002848BF52425E1B41BF171C221C3C1C764248BFB6
:2031D0002B1C192E47BF44FA06F73A444FF0000803E0C6F11C0704FA07F8002A04BF002084
:2031F000BDE8FC8146BF524201270027A3F101035200FBD512F080040DD002F0200548EA4F
:203210000508803228BF5B1C02F0400458EA040808BF22F480729B1CDCBF0020BDE8FC819A
:20323000FF2B0ED222F0FF024FEA42024FEA522040EAC35040EAC770BDE8FC8108464FEAF2
:20325000D0774FEAC777FF204FEAC0503843BDE8FC8170472DE9F84F0C4605465FFA84F815
:20327000200824BF3148444031494FEA8803C85884EA00022A40C2F300672E4A05EA040671
:20329000A843324005F4E0260243B6F5E02F01D1500E14D305F4E020074310D002F4E0278C
:2032B000B7F5A02707D0B7F5803704BF22F4003242F4A02203E022F4803242F4C022DFF8B4
:2032D00078B01E4F012000FA08FACBF800A0DFF87090CA500146386801FA08F60027064289
:2032F00018BF0F1C37B9E80D04D34946C4F3805001F80800280E0DD305F082F9210E34BF41
:203310000021311C0D4A1268B24311430B4A1160FDF706FB37B1E80D04D34846C4F3805190
:2033300000F80810CBF800A0BDE8F88F006000A000100840007F077FE0200260D0200240ED
:20335000002002402DE9F843384C143C606F656F04F17409002866D00646F06840F6030284
:203370000827531C02E040687F1EFFB260B15FB101888A4218BF8B42F5D131694CC82031E8
:203390004CC189C881E8890005F1280090E80C00002705F12806B84686E88001A96879B1B8
:2033B00038464FF0E24100EA020611EA03070EBF002E02400B40AE682869B5F93C10B04706
:2033D00005F01EF90646B4F986004746401C6FF31F30A4F88600484685F83F7004F044FBA9
:2033F0003046FDF79DFAB4F984106068B4F986300246994217D192F8701000290CBF0068DF
:20341000381C82F8707060B1B0F1FF3F0BD008490968AC34B0FBF1F1204604F0DDFDBDE81B
:20343000F88304F07FFCBDE8F883C046DC070020341200200EB530480090304801903048B7
:2034500002900021002005F0E3F92E4908602F4804F06CFE2C4908602D4801F07FF94FF00A
:203470008040002102F0C4FC2A49086000F090FF03F038FF284A00200021012301F07AFFE4
:20349000684602F0F5FB234800680021002209A304F04FF91F480068012100220BA304F0D9
:2034B00048F91C480068022100220DA304F041F90EBDC0462A4D6963726F4564647973746A
:2034D0006F6E65426561636F6E00C0463C2042636173742053746172742F53746F7000C040
:2034F00020426561636F6E204D6F6465204368616E6765203E00C04615360000A17C00007D
:20351000215100001C15002020150020D414002019820000D806002011850000F8B504F0AB
:2035300077FF02F01FF904F08BFF054605F00C000C2854D0E80826D204F0BAF82A4E376834
:2035500004460120014604F0C1FB31686143884219D22649F020B0FBF7F0241A887C18B1EB
:20357000C868A04238BF041C214D2146284605F04BF9284605F044F90120FDF7D5F92846A5
:2035900005F03AF92DE0280929D21A4CA4F1200620688168184888470746042FF8D0174852
:2035B000690905D227B101460A6822F0010203E001460A6842F001020A6098310A6842F064
:2035D00003020A6030688169202088470C4C37682068B86B804701202060206801E004F074
:2035F000FFFF04F01BFFF8BD888F0000948E000028030020D8010010004003408C21084015
:203610002C2009400EB58DF8000033E03449002008703448006800221CA3072104F089F833
:203630004FF44870ADF80400022101AA0220FEF71DFD03F03FFC28E0294900200870294826
:203650000068002217A3072104F073F81DE024490120087023480068002216A3072104F0C2
:2036700068F812E01F4800680721002217A304F060F80AE09DF80000401EC7D0401EDBD04C
:20369000401EE4D0401EEDD0FFE70EBD42435F53746174653A496E697469616C697A6564A7
:2036B00000C046C042435F53746174653A49646C6500C04642435F53746174653A41647657
:2036D0006572746973696E6700C046C042435F53746174653A57616974696E6700C046C0F7
:2036F00024150020D80600202DE9F04707467D68BE6890468A4604F083FF81463068006BD8
:2037100000F48071287800B119B14846FDF708F957E005F5827004F06FFF0024EC77C5F84D
:2037300020A06C623168086B40F4807008634846FDF7F6F805F2291004F04AFA4146384673
:2037500003F004FF05F22919A862A8B93846414602F062FEA878D0B9A96805F1CC0004F0F8
:2037700065FDE8B1AC621020E8773146284601F08FFC05F2291022E004F042FF3268916B43
:2037900041F020019163FDF7CBF8A87810B12046BDE8F087A96805F1CC0004F047FD10B9E5
:2037B000686ABDE8F0873846414602F035FE1020AC623146E877284601F06AFC484604F086
:2037D000F7F94FF0FF30BDE8F08770470EB50191009003F057FF08B901205CE0019840087B
:2037F0000CD32E48006801882B48008808430099014203D004F048FE02204CE0284800681E
:20381000400807D3274901200860254800684008FBD203E004F038FE01203CE00198400868
:203830000AD31E49BDF80000096888801A4900980A881043088003E01848006800218180D1
:203850000198800805D31549BDF800000968C88003E0124800680021C1800198C00805D353
:203870000E49BDF800000968088103E00B4800680021018104F064FE04F071FE0A49086875
:2038900040F0400008600849086820F04000086004F0FAFD00200EBD9C130020941300205B
:2038B0000C500C403C500C4000500C4008B52C480078012853D02A49012008702A482949F7
:2038D00020F003000860274801682948401A274908602448274900680860224800680090D4
:2038F00005E00098002101600098001D00901F4801681C480068401800998842F1D81B48F1
:20391000006881081B48006800EB8100001F00900098002101601748006800900098E821AE
:20393000016014480068E83000901048006881086FF0EB0000EB8100009908600E490098BB
:2039500008600020FFF742F80C49086009480A490068086005480A490068001F086008BD1A
:20397000A8060020A00600205E1500205015002000400020A4060020E4140020E81400202D
:203990009C06002038B52A4C0D46A8083FD2E8084CD32F4854380068006B8047A060E06EE4
:2039B00000280EBF6068006960604068214900780860022003F0C6FC112000F03DFA0120CF
:2039D0001D4D2074287810B90E2000F035FA60684168886808B9C86810B1184804F06AFC56
:2039F0001749184D072000230860296816482B606A686B60154B2A68636140EA02011A200C
:203A1000296004F0FFFD192004F0FCFD38BDFFF799FC204600F17401096811B902F098F8EE
:203A300038BDD03045F0020104F000FE38BDC046C8070020D0210840268F00005100070621
:203A500000000460141004400200004031130000E00100102DE9FE4F894605460CAF97E85C
:203A700003001E4601919046009004F0C9FD2C4F6FF0010A834608203F1F07F5D07494F81D
:203A90003F3033F07F033ED107F1AC0004F0B4FDB7F98400401C6FF31F30A7F88400C4F88A
:203AB0000C9084F83E80A660B7F88400009AA0870198022320211343002242EA000617481E
:203AD0002561314004F118061840134686E8030004F1200686E80C006363214623634FF023
:203AF000FF36A663802284F83F2007F16C0085F8703003F0CAFFF86E844201D102F028F8AE
:203B1000B4F93CA003E0401E04F14004B7D15846FCF706FF5046BDE8FE8FC046FFEFFF9F1A
:203B3000CC0700202DE9FE4FDFF8C08098F8990100284FD0002501212C4698F8992101FA99
:203B500004F0104203D1641C032CF6D342E098F899211020A040104218BF0D1C04F050FDB4
:203B700098F899211121A1408A4388F89921FCF7D7FEE0B204F0D0FA60B3877A57B390F912
:203B9000099019490768012D446851F82960019710D0017A02290DD100F1100191E8000C7C
:203BB00000274FF0805317EA0B0703EA0A0108BF002901D101F0EAFA012D04D00096002260
:203BD0004FF0006303E000224FF00073009201984946A04798F8990120B108F582700021D0
:203BF00004F024FDBDE8FE8F94300440C80700202DE9F04116468846044604F001FD07467D
:203C10002A488325B8F1080F32D8DFE808F0463F3C313725150533C00446207CD0B9E06ED9
:203C3000C0B9316804F1D00004F002FD316804F5827004F0FDFC32E00446207C50B9E06EEA
:203C500040B93168192004F0E3FC31681A2004F0DFFC24E0002522E0306828B1012807D177
:203C7000802003F055FA1AE0802004F069F816E0032514E030780E49087010E00D483168FC
:203C90000C3001600BE03088608208E00120E668607406F16000E06001E0306820603846B9
:203CB000FCF73EFE2846BDE8F081C046C807002060090020C807002008B52348006800281C
:203CD0003DD1224804F014FA20490020086021481F490860214801781F48007861F3020019
:203CF0001D4908701D48007800F00800C1101A48007861F3C3001849087017481649008820
:203D100020F47C7040F4347008801549087820F004000870002001F0DBFF124908801348A0
:203D300011490860144A094B11481249FDF770FE054908600448006808B9012002E0FEF7C6
:203D50000DFD002008BDC046A8070020581400206C1400204966000000060020F58E00000B
:203D70000106002002060020040600200C07002038120020088F0000F00500202DE9B04368
:203D9000044604F03DFC81462748221892F8F010491ECFB2002F82F8F0703FD1254901EB47
:203DB00084014A880C78904634F07F0718D1E1090FD24FF0805000F5DC75D0F8B801816924
:203DD000104688472868416B404688470228F9D11EE000EB8800D0F804110020884717E0F5
:203DF0004FF08055D5F8B801016A10468847D5F8B801816A40468847D5F8B801016B40464B
:203E100088470A4901200860094908688008FCD304F03F00132801DAFFF7B0FF4846FCF75F
:203E30007FFD0020BDE8B0831C0300202820086028200840DE8B0000F8B5064604F0E0FB4E
:203E5000264D0746711991F8F000421C002881F8F0203ED1224C04EB8604267806F03F00B7
:203E7000132801DAFFF7E8FF648836F07F0018D1F0090FD24FF0805000F5DC75D0F8B80115
:203E90004169204688472868416B204688470128F9D11EE005EB8405D5F804110120884786
:203EB00017E04FF08055D5F8B801C16920468847D5F8B801416A20468847D5F8B801C16AEB
:203ED00020468847074901200860074908688008FCD33846FCF724FD0020F8BD1C03002007
:203EF000DE8B000028200860282008402DE9FF41284B4768866814460D4601A81A689988AA
:203F100002609B798180A5428371A8BF2C1CB168786804F08BF978BB4FF00008CDF8008060
:203F3000F068318A6D1C16A22B4603F040FFA41C0246AC4213D9641BF06801A90B6880180C
:203F5000036089888180308A921D801A082804D23868F16804F0EFFA4246641EECD1F068DE
:203F70000BA10988801801803868F168921C04F0E2FA786804F052FB0090BDE8FF81C04688
:203F90001B371B5B3130721B5B25643B256448001B3800C0588F00001D4838B50468B4F10E
:203FB000FF3F08BF002404F0EDF92448244B194A002501211038056003F15C00164B0160AA
:203FD00018681160806C80471448006820B114480068204600F0C0FE124813490560134C46
:203FF0000A686FF35B4244EA0200086010490868C0F30130012806D10A680E48104040F4AF
:2040100000320A6008600C4908680028FCD138BD1C13005008220443F00100108001284300
:20403000000120438C210840482003400000390104000940FFFFFCFC0C00684294046042FF
:2040500000600C402DE9F84F1F468B46161C14BF4FF080484FF0005804F0D2FADFF884A0B3
:20407000002503248146BBF1FF3F06D15046C36F002B0CBFC06EC06F03E05846294603F05E
:204090002DF840B390F83F4034F07F0422D05446E16F81420DD001463A4602F01BF9C8B188
:2040B000207C012814D004F1D000022104F0BEFA0EE043462A4602F069FE002E14BF0A4820
:2040D0000A4803F0B3FB1FB1E16E3A4602F002F9832400E004244846FCF722FC2046BDE8F8
:2040F000F88FC046C8070020010002040100010400B5ADF11C0D0020009000208DF8140042
:20411000002003900020049003F05BFF204908602048006801900198006802900298002854
:2041300029D0029800080DD3029880F00040029000208DF8140004990398884216D90398D3
:20415000049013E09DF8140048B10099029A086880180860039802994018039006E00298E0
:20417000039001208DF81400019800900299019840180190CFE704980399884201D2039876
:2041900004900348006803F005FE049807B000BDE0140020E8140020BCB5284C241F04F175
:2041B0006C05E16F28680029074644D100283DD0684601F079FE28B1009818B1082002F074
:2041D000A7FFBCBD082003F0BBFD284603F04CFCE06707F1180003C81749C4430B1F1C6005
:2041F0001A681042FBD10A6810430860F869C04341F80C0CF86951F8082C104341F8080CAF
:20421000F868044603F012FB2088A0F6020040B141F21E01401A04D041F6E671401A012822
:2042300009D80120214603F0C5FBBCBD04F1D000022104F0FBF9BCBD14100440CC07002035
:204250002DE9F0410646B76875688846ADF1280D684603F00FFE00248DF801407868069010
:20427000012003F0E3F96860686840B102F074FC3878694602F090FC2860286808B9264631
:2042900017E00421224604F051F998F80000401E08D0401E04D0401E14BF201C07A002E05E
:2042B00008A000E009A0A86028680AA1122204F042F930460AB0BDE8F081C0461B5B324BD8
:2042D00000C046C01B5B304B00C046C01B5B314B00C046C01B631B5B324A1B5B3130721BC5
:2042F0005B31313B314800002DE9F843002A8946074604D4B2F5004FB8BF95B201DB47F601
:20431000FF75002F08BF002034D03888002808BF002403D02A4600F089FC84B2AC4228D058
:20433000388830B1291B484613A202F051FB001984B2B868E8B17E688EB1304603F032FF40
:20435000A5EB0408401D1FFA88F1884207D833464146484609A202F03BFB001984B2291B25
:20437000122906D3BB68484606A202F031FB001984B22046BDE8F8833A2000C022257322D7
:204390002C2000C06C696E652025643A20007047184900200870184901200870174902202A
:2043B00008701749032008701649042008701649052008701549062008701549072008708A
:2043D000144908200870144909200870134904200870134951200870124940200870124907
:2043F000002008701149B02008701149002008707047C0469E1400209F140020A01400204B
:20441000A1140020A2140020A3140020A4140020A5140020A6140020A7140020A8140020C8
:20443000A9140020AA140020AB140020AC140020AD1400202DE9F047DFF894A0DFF89480CE
:20445000002501244FF002091126E8B203F064FE071C38D0B87A012835D197F90900AAF1D2
:204470000401113004FA00F0C2430A604A681043486097F9090004FA00F0C0B203F060FC94
:2044900007F11000002103F0A5F80146812909D1B86918B1002103F09DF80146812908BF3D
:2044B00087F80A9081290ED0404600F2991297F90910137806FA01F100F58270194311703E
:2044D000002104F0B3F86D1C032DBED3BDE8F0870C100440C80700202DE9F04104F090F894
:2044F000244D214E804605F1E000007848B93446A168022088470746102002F03DFE77B36F
:204510001BE003F09DFFC0091BD21B483C380068C4681648342101220023A04788B101F0D6
:204530007FF834460020A16885F8E000022088470746102002F020FE8FB1A168032088473B
:204550000DE00B4800683221B1FBF0F101B901213035284604F04CF8284604F04BF84046B1
:20457000FCF7DEF9BDE8F081948E000000A00C40341200201C030020E00100102DE9F04160
:204590000E46071C14BF002E002040D0224C4FF0FF3104F12800804603F048FE3078FE289C
:2045B00011D022680021FF2808D082422AD31F2828DA04EB8000D0F898501DBB491C16F8EC
:2045D0002100FE28EFD1002038607860B8603078FE2818D00125FF280FD01F280DDA7B6829
:2045F00004EB800105FA00F0C1F898701843094978603268384602F079FC16F8040FFE2840
:20461000E9D100E00027404604F008F83846BDE8F081C046007FC76708020020F0B52048D1
:204630000127F84201D001F095FF204D204F214EBD4206D203CD0478A4003459401CA047D0
:20465000F6E71D48002800D08047164D164FBD4202D210CDA047FAE7F0BD03251BE0416890
:2046700008300A1C2A400BD11A1C2A40AB4305D0046804300C600431043BF9D1131C05D0D5
:20469000047801300C700131013BF9D1021C2A4001D0A84304300368002BE0D17047C0462D
:2046B000FFFFFFFF0000000000000000149200007C920000CC91000015C401102DE9FC479A
:2046D00092460D46826844689168D768B2F810806068994603F0AAFD0028504632D1FF2D69
:2046F00010D0401CA8F102016B1C009016A2384603F05DFB0646A06828B10168F019361D48
:20471000016000E000260A9BA8EB0601F0194A46891E03F08FFFFF2D064406D10D22701C1A
:204730000A21BA55461C395404E00BA00188F519B61C298020683946324603F0FCFE60686B
:2047500003F06CFFBDE8FC871B371B5B3130721B5B25643B256448001B3800000EB5029075
:204770001B481C49FFF70AFF1849086017481A49006803F05FFE1548184A00684FF4E021B4
:2047900002F0B4FB1148164A00684FF4E02102F0ADFB0E48134A00684FF0C05102F0A6FB6B
:2047B0000A48114A00684FF0C05102F09FFB00200F490090002001900C48C822002301F0ED
:2047D000F7F90C49029808600EBDC0465415002010150020E8060020496800000D00058092
:2047F0000E0005800D0000100E000010C0130020E17A00007C0400202DE9F84F81460020A9
:20481000C9F80000684601F04FFB204FDFF880A000264FF0FF354FF0190B34468046E0B2AA
:2048300003F07AFCB8B1837AABB1017A0126022915D079684A8A4069C968891897F89A2111
:204850000BFB021102F0B0FE51460968B0FBF1F0854288BF051C641C032CE0D300E0002565
:20487000B8F1000F04D0012E05D0B8F1010F05D0012E04D005E00098854200D9009DC9F88C
:20489000005046EA0806F0B2BDE8F88FC807002034120020002A4AD05FEA000C8B071CD13F
:2048B000830722D1102A08D370B4103A78C978C0103AFBD270BC103238D0042A2CD3082A83
:2048D00005D30C2A24BF08C908C008C908C008C908C092072AD0920F22E00B780370491C7B
:2048F000401C521E22D08B07F7D1C30714D18307D8D0121F12D308C903801B0C4380001D3E
:20491000121FF8D20AE008C903701B0A43701B0A83701B0AC370001D121FF4D2121D05D0FE
:204930000B780370491C401C521EF9D16046704700B5ADF1140D8DE80C00ADF810100290CD
:2049500003F024FE03909DE80C00022100201140184000D100291ED01A4801680020884780
:2049700019480078012812D10320FCF779FF50B1154900200870039803F092FD11480168DE
:20499000152088471CE0039803F08AFD18E0039803F086FD14E09DE80C004FF0E0400021E4
:2049B000184001EA020100D1002906D0064900200870039803F074FD02E0039803F070FD0E
:2049D00005B000BDFC140020A6070020FEB584684668206803F09CF8216820488A6B1040C6
:2049F000886340F2F27120681D4D416494F82000295C94F8210040198079084321684863E1
:204A1000684603F0F1FD317F05EB81012068B2690B6A717F05EB810189691943B37F05EBEB
:204A300083052B6B0B43019903F040F82168C86A40F01000C8622168086B40F00100086378
:204A5000A07D0027FF2802D0E07DFF2800D11FB1086B40F440400863FEBDC0460DF8FFFF8E
:204A7000748C0000B0B5456884682349607DA27DADF1180D40F000400090207D0027FF2A10
:204A900041EA000001904FF0020002D0E27DFF2A00D13FB1E37DA07D1943039140F0004011
:204AB00002900420FE214DF8201005F154006946FFF764FD2866002808BF381C1AD0617DB3
:204AD0000F2202F027FC286E217D102202F022FCA17D3846FF2902D0E27DFF2A00D140B12A
:204AF000286E112202F016FC286EE17D122202F011FC012006B0B0BD0000C0A000B5ADF1BB
:204B10001C0D039302920191009020480490009805900598082804D31D480490059808386D
:204B30000590059841000320884004994968814305984200019800F0FF00904008430499D6
:204B500048600599012088400499059A096881430398904008430499086005990120884063
:204B70000499059A896981430198C0F3074090400843049988610498806901980299020F35
:204B9000009801F045F807B000BDC04600100C4000200C402DE9F8432020EFF3118780F37F
:204BB0001188214CA068012103F022FE4FF001094FF0000865692168A4F81C906A1A216866
:204BD000A4F81E80461B401A904227D387F3118840462D18361A4846294603F005FEB042F1
:204BF000F7D92021EFF3118781F31188E18B012903D14046294603F0F7FDB0F1FF3F06D012
:204C1000A169801B814238BF081C291801E0A069411903F0E5FDA4F820902560A4F81C809E
:204C300087F31188BDE8F883780100207FB503461F480D4601881F480088144614A69842FB
:204C500005DB32462146284601F0C2FE1EE0994206DB184603F00CF80028F2D04268F1E7EB
:204C700015480088002808BF0CA2EBD00095002C48BF47F6FF74114E00201149ADF80440AD
:204C90006A46346802901846A047029800907FBD7B6D6F64756C652325647D007B6D6F6496
:204CB000756C652D726F70653A25787D00C046C0768B00002A8C0000FE1200009C8F0000AF
:204CD000ED760000FCB590EA01064CBF4FF000460026020243001B0E12BF42F000420020A4
:204CF000FCBDFF2B32D05FEA01245FEA41055FEA156512BF44F000440020FCBDFF2D25D0BC
:204D10005B1B0020202764085208A24240EB000028BF121B7F1E04D0002A18BF5200F4D134
:204D3000B84010F0004F04BF4000B3F1010380302CBF5B1C40007F33DCBF0020FCBDFF2BCF
:204D500004D2400A40EAC3503043FCBDFF27FF0556EA0700FCBD7047204A2DE9F041804662
:204D70000124A2F13000046019480768002FFCD01B49184DC0200B1F28601868800806D2D1
:204D900053F8040C144B000C40F0F000187000204FF080571060D7F8F0010E6801683046DA
:204DB0008847D7F8F0014268314640469047D7F8F001816830468847D7F8A001C16802202D
:204DD000884740202860074E3460BDE8F081C0469402224300600C405662084040100940C7
:204DF000B43F0050940460422DE9F8438146EFF31188202080F311881E4D1A4C184F0126E8
:204E100005F11C000660A4F114000660F86A016A14208847D9F81000810C14BF000C0420BA
:204E30002060386802682321002090470E480F4F0660386800280CBF311C03210C480768BC
:204E50000FB141F00401183C206820F4E02040EA014020602E6088F31188BDE8F883C046A9
:204E7000840100101820094080022443648F0000688F0000000024432DE9F0410646746863
:204E9000B56803F0BDFB8046A06A58B928688169090907D2006B400A04D24046FBF740FDB4
:204EB000BDE8F08104F5827003F0A6FB00274046A762FBF735FDA97D3846FF2902D0E97D6F
:204ED000FF2900D118B12046294600F0E1F803F097FB2A68916B21F0200191632A68116B1B
:204EF00021F480711163FBF71BFD04F2291002F05FFE606A216A091A21622369626A3046D7
:204F10009847BDE8F081ADF1080D00918DF80400009818B9022037E0022035E09DF804004D
:204F30000028F9D1009840798DF807008DF8060000208DF805009DF8050005281ADA00980A
:204F50009DF80510085C9DF8061008438DF8060000989DF80510085C9DF8071008408DF893
:204F700007009DF80500401C8DF805009DF805000528E4DB9DF8060018B19DF80700FF28ED
:204F900001D1012000E0002002B0704770B506467468B568206E02F08AFE29681A488A6B4B
:204FB00010408863002020703046FFF765FF304601F068FB2968C86A20F01000C8622968BE
:204FD00012480A6B104008636868FEF7D7FE04F17C0003F013FB04F1980003F021FBA07877
:204FF00018B904F1CC0003F017FB607818B904F1E80003F011FB04F5827003F0F3FA04F1C5
:20501000680002F0A5FD70BD0DF8FFFFFEFCFFFF00B5ADF1140DADF80C3000928DF80F10D1
:205030008DF80E0003F0AEFA0190BDF80C000A3002F075FA029020B9019803F02BFA1320F6
:2050500020E0019803F026FA9DF80E00029908729DF80F0002994872009830B10298009937
:20507000BDF80C200A30FFF715FCBDF80C000A3082B205480299006802F0C4FF0348006817
:205090008047002005B000BD3C1500203815002038B50C46054603F0B3FA2268916B21F008
:2050B00020019163FBF73CFC286E217D012201F00FFB286E217D012201F034FF286E217DA0
:2050D000002202F027F9286EA17D002202F022F9A878012806D005F1CC004FF0FF3103F066
:2050F000A5F803E0216888690009FCD2286E217D102202F00FF9A17D0020FF2902D0E27DD8
:20511000FF2A00D118B1286E112202F003F938BD0EB58DF804001A490868401C08601848CD
:2051300000680A22B0FBF2F15143401A082808D11E208DF80800012102AA0520FCF796FF00
:205150000BE00F4800680A22B0FBF2F15143401A03D10C480078FDF7F9FD0948006800901A
:20517000094800680521002201A302F0E2FA0EBD256420416476277320646F6E6500C046B7
:20519000DC060020E0060020D8060020F8B5074603F036FA04467FB3B87A68B397F909205A
:2051B00002F0F6FC012303FA02F1CDB248B1144E113203FA02F0326882433260C34346F8A6
:2051D000043C0020B8610346BB723B7207F110063B60024686E80C000A4A7B6002F5CC7056
:2051F00003781943017092F89A0110B1401E82F89A01284601F08CFF2046FBF791FBF8BD7B
:205210000C100440C8070020FCB590EA01064CBF4FF0004600264FEA00224FEA40031B0E47
:2052300012BF42F000420020FCBDFF2B24D04FEA01244FEA41052D0E12BF44F000440020A1
:20525000FCBDFF2D18D05B19A2FB0454002C5CBF64005B1E803424BF5B1C64087E3BDCBF16
:205270000020FCBDFF2B07D24FEA142030F4000040EAC3503043FCBDFF27FF0546EA0700E7
:20529000FCBD002213460A46194671B510F0030F0BD0002A82BF00F8011BB2F1010210F0E3
:2052B000030FF6D1002A08BF71BD11F0FF0141EA0121042A18D341EA0141082A0FD30E46AA
:2052D000102A08D30C460D46B2F10F0312F00F0272C0103BFCD812F0080F18BF42C012F0F7
:2052F000040F18BF40F8041B12F0020F18BF20F8021B12F0010F18BF017071BD0EB5ADF84E
:205310000400BDF8040002F067FB1249FFF7DAFC01F040FE02460B460FA003C8FDF79EFE73
:2053300002460B460EA003C8FCF7EBF800F008F900900D490098FFF767FF01F02BFE0BA2E3
:205350000CCAFCF7DEF801F0E7F9ADF80600BDF806000EBD00008047D7A3703D0AF7654008
:20537000CDCCCCCCCC6C47C000002041000000000000E03F0EB58DF80930019200918DF803
:205390000800019808B9012023E09DF8090028B19DF80900012801D001201AE09DF80900AF
:2053B0000E49087001980E4908609DF8080018B90C4802F057F801E002200AE001F078FF5E
:2053D00008B1012005E003A002F0C8F90649086000200EBD714576744D7367008807002090
:2053F00038150020401500203C15002008B51648144908601548FCF75BF915480121012224
:2054100002F073FC13480068426811480121904701F034FD01F0E4FE0F4802F0CDFE0F48FC
:20543000FDF79CFD0120009000984FF48031B1FBF0F001F0F1FB012002F001FF03F0CCF95E
:20545000002008BD980700205D1D0000E88C000000400340D8010010AD850000B88C0000C8
:20547000B0B51A4C0546241D20680004070C27D01448006800688047134991F9072082426B
:2054900005DD10F1800FB8BF6FF07F00C871BD422CBF01277F1B8D88BD4210D80A68D4F816
:2054B000D40F801A801C1F2888BF1F207F1B4008C7404FF6FF70EF19B84238BF071C8F802E
:2054D000B0BDC046EC0100103015002030100940174810B50068016804208847022821D05B
:2054F00003281FD001281AD012480068C0F38150032805D002280CBF41F28832322201E012
:205510004FF47A720C490D4C09684C342046B2FBF1F103F06DF8204603F06CF810BD01F0E5
:2055300071FC10BD01F06EFC022001F0BDFD10BDE0010010B43F005034120020240300204B
:205550000CB44FF07F4343F460034FEA4102D21A1BD24FEA105040EA013010F5807024BFBF
:20557000400801F580114FEA5020002948BF40F000404FEA4101490DB1F560710CD4FF29B3
:205590000DD240EAC1500CBC7047DB431A40024305D0D8430CBC704700200CBC704701F0A6
:2055B0000041FF204FEAC05008430CBC704770472DE9F8430024002B16460F46804625462F
:2055D00006D5002FC3F1000302D57F42761E2D2599463846494601F0FFFA0CA0405CB7FBAC
:2055F000F9F7002F04F1010408F8010DF1D1A64205DD3021301B401E08F8011DFBD10DB146
:2056100008F8015D4046BDE8F883C046303132333435363738396162636465660000FEE729
:2056300038B54FF08055D5F8E001016801208847012822D0D5F8A401C468114834210122C8
:205650000023A047002808BF002017D0D5F8800002F028F9D5F88C01C06A80470A4A094CE6
:2056700093681168D060C01AA1EB910104FB00F3180C884228BF011C1160012038BDC0460D
:2056900000A00C4040420F008814002098B5164C94F8E100002710B91448007860B102F0DE
:2056B000AFFF94F8E310002906BF012184F8E3100127FBF735F90FB1002098BD022001F09E
:2056D00041FE0E20FEF7B8FB094A106848B909494020C86008600127D761002084F8E200B9
:2056F00098BD012098BDC0461C030020A98E000004800C402C500C40012898B527D11648EF
:205710000068016801208847012820D002F040F9134C012104F1D800017002F091FE8009AB
:2057300017D20E4800683222B2FBF0F707B90F46083C04F1300002F05FFF04F13000394658
:2057500002F056FF04F1300002F054FF01E001F095F8002098BDC046E00100103412002057
:2057700024030020164880B507683FB315498B6803EA5300C00E21D2134A106880081DD240
:20579000486880081AD21068096810F0050F4FEA114101F0F00101F5E0710AD1B9420DD26F
:2057B000190F38BF40F00100D90E38BF40F0040003E0B94202D920F00500106080BDC046F6
:2057D00028500940AC3F00500000094010B502F017FF1349097802291AD0FBF7A1F81148D1
:2057F0000068006B8047104A002302F073FB0F4C4FF090531B1820684FF07A044FEA0002F2
:2058100044EB010400215B1844EB0204241C04E0074990390C68FBF783F8204610BDC04624
:20583000D80700208C01001000093D008414002094300440F8B5184C1548E76F02F022FDE1
:205850001449054608680E6800F02000284006F460260DD067B10300C4F88070002238466E
:2058700001F094FA04F1D0004FF4804102F0DEFE16EA05000AD094F8991141EA504084F8B6
:205890009901002104F5827002F0D0FEF8BDC04620000E000C100440C8070020F8B58446E3
:2058B00040F6FF741CF8013B002210E0481B401E10F8015B7F1E01F8015BF9D103E01CF8F5
:2058D000010B01F8010B521C5B08082AEADA5808F5D21CF8010B1CF8015B05F00F07FF1C03
:2058F000C5F30315122F45EA001508D11CF8016B300A24BF1CF8010B60F3DF16BF19AC429F
:20591000D4D1F8BD0EB500901FE015480068002824D013480068804720E012480068E8B105
:2059300000980A3001900F48016801980078884714E00D48006888B100980A3001900A48B5
:20595000016801980078884708E00098407A401EEFD0401ED9D0401EDFD0FFE70EBDC046CC
:20597000F0140020F4140020EC140020FEB50188B1F5C15F18BF012024D1C66941698769F3
:20599000124B03240296ADF10405009103F1080000680197C0F3036655F8047F7FB10A4938
:2059B00038464FF0FF32052301F054FF052806DA8100785820F4702040EA06407850641EC1
:2059D000EAD10020FEBDC0460200F8444C1300500EB5ADF80400BDF8040001F0FDFF0E49C5
:2059F000FFF770F901460D48FFF70EFC01460C48FDF7B4FB00900B490098FFF705FC01F0FA
:205A1000C9FA09A20CCAFBF77CFD00F085FEADF80600BDF806000EBD000080470000FA4220
:205A30000000C0C000002041000000000000E03F0EB5ADF8080002F0C4FA019000200090F5
:205A5000009806281CD20099880000EBC1000F49085AA8B10099880000EBC1000B49085A1F
:205A7000BDF80810884205D1019802F093F99DF8000009E00098401C009000980628E2D315
:205A9000019802F087F9FF200EBDC0460013002000B5ADF1140D01910090FDF7CBFC11481E
:205AB000114A006800214FF0FF3302F091FE0290029850F08040F2D00CE00C48006801F079
:205AD00005FF0390039828B1039801F086FE039802F0DCF90548006802F076FE0028ECD03A
:205AF000DDE7C0461C15002003000040201500203EB5401E4FF000040AD0401E04D0401EE5
:205B10001DD1FCF7EBF91AE0FFF7C0FD044616E0684602F001FD20460C4D019401226B46FD
:205B30008DF800000749029005F1780000F0FCFB054A2C21234605F19C0001F0ADF8204606
:205B50003EBDC0465D5E00005D0300001C030020164838B5017C022923D00446207C0128E5
:205B700022D002F04DFD05466846FEF745FE80B1009949B904F1880002F03EFD04F1D0007B
:205B9000042102F053FD08E004F1880002F024FA03E004F1880002F02FFD2846FAF7C0FE7E
:205BB00038BD192002F030FD38BDC046C807002080B502AFADF1380D0C930B920A91099065
:205BD000124800684FF47A71B1FBF0F00B9948430D90684602F04DFA786806900B48006855
:205BF0004FF47A71B1FBF0F00C99484305903878ADF810000D9A09980A996B4602F0E0FD46
:205C1000099802F05FFC0EB080BDC046888F0000ADF1180D02920191009013480099006899
:205C3000085C03900298800240F0080004900EE0049840F4C040049010E0049840F4005013
:205C500004900BE0049840F48040049006E00198401CEDD0401EF0D0401EF3D00399034AD1
:205C70000498505006B07047A81300200010084008B500901048007848B10F48007801282A
:205C900005D00D480078022801D0012013E00C48012100F011FC09490860009820B1009815
:205CB00008490DC881E80D000748084901F0D0FF0120FCF7BBFF08BDA00700204815002001
:205CD00015700000EC14002055790000E1610000ADF1080D8DF8000000208DF8010019E028
:205CF00011499DF80100096800EB400041569DF90000884209D10C499DF80100096800EBF0
:205D100040000918B1F801000CE09DF80100401C8DF8010005489DF8011000788842DFDC14
:205D30004FF6FF7002B070475F8F0000638F0000F8B50646B08815460F46FEF777FF0446C0
:205D5000002D02D4281B0A2806DB3368291B38460CA200F03DFE2418B08901280FD1002DF9
:205D700006D4B06802F01EFA291B401D884206DCB368291B384604A200F02AFE241820468D
:205D9000F8BDC046257000C02827257327290000F8B5054602F048FC0746AE6868687908CA
:205DB00004460BD300F5947001F002FF606B216BE368091A2163626B28469847B80815D3B5
:205DD00004F2291001F0F4FE3168886B20F0200088633168086B20F480700863606A216A2A
:205DF000091A21622369626A28469847F8BDFEE72DE9F04106465FEA010808BFDFF840806B
:205E100010480078C8B1104C07460025B54204D02068C0698047064209D020684068414640
:205E3000024620469047002818BF201C06D17F1E04F10C0405F10105E8D10020BDE8F0812E
:205E5000DB8D0000DC8E0000188F00001348144A14490078801E0A2807D8DFE800F0191498
:205E70000F06140F06140F0607C0FEE710688008FCD250688008FCD2FCF730B80868800850
:205E9000FCD3FCF72BB808688008FCD2FCF726B810688008FCD3FCF721B8C04600040020F1
:205EB00034600C4038600C40154AB0B5054602F15C000768E7B1F868007B012400F00F00AA
:205ED000022818BF002015D13969F8684B8AC9688068103AC91892F89A31192202FB0311EF
:205EF00001F062FB054909682860B0FBF1F001E00020044628602046B0BDC046341200205F
:205F1000D807002038B54FF0FF3001F077FF134C0F490546241F606981420ED10D4904F1B5
:205F30003400002202F072FB0220207401F016F818B9FEF77FFAFEF72FF90748284205D0FD
:205F500004F1D0004FF0005102F070FB38BDC04671060000810F000002000040CC07002048
:205F700008B501F0C3FF10480E490088088010480E49008808800F4800888DF800000E4869
:205F900000888DF8010007480088FFF7B7F90549088006480088FFF71BFD0449088001F0E6
:205FB00005F908BD4E150020EE000E4026150020EA000E40F0000E40EC000E401549096875
:205FD00021280ADC212819D00C380FD00D380FD0001F0FD0C01E0FD01AE0253810D0001FF8
:205FF00010D0401E10D0401E10D011E0086870474868704788687047C86870470869704700
:206010004869704788697047C8697047086A704700207047F001002038B50C4620B14168AE
:206030000122A240114201D1022038BD914341600E480025031900EB8401C1F8985003F1FE
:2060500044010978FF291ABF806850F8211044F020410548FDF7FEF820464FF0FF3101F076
:2060700067FD284638BDC046007FC76708020020084608B500F0005100F00400084317D0FA
:206090000C4800680168012088470C4A012809D009490968104632227430B2FBF1F101F0F2
:2060B0009BFF08BD074910460160054802F002F908BDC046E001001034120020DC0700200B
:2060D0007414002071060000F8B516460C4602F097FA1149832524B1641E16D0641E0CD016
:2060F00009E001F17C021768002F08BF80250FD0C96F898F0BE003250AE01031097800220D
:20611000022908BF0122327002E0044909783180FAF706FC2846F8BDC807002060090020C9
:20613000024670B5084611464D6820381FD0401E1AD0401E18BF6FF001001CD18C6802F091
:206150005FFA0646206802F024F9B0F1FF3FF9D100246C64286C401EA864EC643046AC6383
:20617000FAF7DEFB204670BD0021084601E00121002085F82D1070BDADF1100D019100905C
:20619000114800990068085C0290002003900EE0039840F4C040039010E0039840F400508D
:2061B00003900BE0039840F48040039006E00198401CEDD0401EF0D0401EF3D00299034A70
:2061D0000398505004B07047A8130020001008400EB58DF8040002F0D9F900909DF804009D
:2061F000152803D10220FCF721FD17E09DF804008DF8050003210DF1050201230120FEF7CE
:2062100007FF08480088002808DD06490888401E80B2088010B90220FCF708FD009802F01F
:206230003FF90EBD4C15002008B502F0AFF900900F480078012817D10E48B0F900000028DC
:206250000BDD0C48B0F900100B480068002202F0AEF808496FF0010008800848006801F0E2
:2062700021FE034900200870009802F019F908BDA6070020AC070020A80700200015002006
:2062900008B58DF801108DF800009DF80100000908D30E48007810B101F0CAFC15E000F071
:2062B00009FE12E09DF8010040090ED30848007818B907491020087002E0054900200870BC
:2062D00003480078FCF742FDFFE708BD24150020E00600202DE9F843124D6C352C689046F4
:2062F000002600E02468D4B1A142FBD105F10809276874B1204600224FF0805300F046FD40
:206310002846214601F032FB4846214601F0BDFB761CB8F1000F18BF5FEA0704E8D1304638
:20633000BDE8F883C8070020F0B515460E4604461F1CADF1240D08BF00230DD06846002100
:206350002422082302F038FA3B78ADF81030B86806907A6805926B46204631462A4602F0E1
:206370002FFA0348034F0168204609B03960F0BD888F0000341200200EB5009001F021FE99
:206390000E4908600098001F01900199086820F00040086001980A4902680868801808605E
:2063B000084901980968884202D20198054908600248006801F0EEFC0EBDC046E014002013
:2063D0009C060020E414002008B50F490B204FF0FF320123FEF792FB0C480D490078401803
:2063F000016841F08041016007494FF0FF3201230A20FEF783FB074805490078401801687A
:2064100041F08041016008BD02000100F08E000000100840EF8E000070B540680C46054694
:2064300000F5827002F0E8F80D486A7F0168287F8018AA69C01D80B244430A4805F58276C0
:206450006043B0FBF2F008186330B0FBF1F1491C304602F0CDF8304602F0CCF870BDC046CB
:206470003412002040420F000EB500918DF8040000208DF805009DF80400072801DA009853
:2064900008B9022010E09DF80410084A094B12F82110074A89189DF80420009813F82220FF
:2064B000FEF7F8F99DF805000EBDC046788E0000C8050020798E000000B5ADF1340DADF848
:2064D00008100090282001F02AF801900198B8B103A801F0C3FDBDF80800099000200890AC
:2064F0000020ADF81C0001980099002203AB001D02F066F90198001D01F0DEFF01990860B5
:2065100001980DB000BD7047042838B51CD1104C04F18800054601F0A4FEA8B1284602F02B
:2065300065F80A4909684843B0F5967F0CD2284602F062F8052000F005FF204601214177F4
:206550000421D03002F072F8002038BD34120020C8070020F8B506460F4D104F738800246D
:2065700017E0A20002EBC402921951689068D26852B9AF420BD00A7855F822200346491C93
:2065900008461946904701E0FEF784F97388641CA4B2A342E5DCF8BDCC910000D891000022
:2065B00010B504460D48006880470E480C4900680C60804710BD094810B50068804708498F
:2065D0000848094B0A68006843F2390403FB02440C608047C4F30E4010BDC046180700202D
:2065F000B00700201C0700206D4EC6410EB501208DF8040001F0CAFF00900E48007828B151
:20661000009801F04DFF9DF8040012E00020062100220023FEF7FCFC8DF804009DF804006F
:2066300010B9044901200870009801F039FF9DF804000EBDA607002000B5ADF1140D0192A2
:206650008DF80C10009001F0A1FF02909DF80C00800805D30020042100220023FEF7D8FC82
:206670009DF80C00C00805D30548006810B1044800688047029801F013FF05B000BDC046C3
:206690008C070020F8B505466C68AE6801F0B8FF31680746886B20F4FA60886304F594707E
:2066B00001F086FAA06B18B93846FAF739F9F8BD0020A063616B206B401A20633846FAF761
:2066D0002FF9E368216B626B28469847F8BD704738B50D460E49144664390A68AA4205D361
:2066F00001EB8501D1F89810884201D0022038BD01F086FF074B103B1A68AC400121A94069
:206710008A4314431C60FAF70BF9002038BDC0466C020020E02002400CB54FEA41034FEA72
:206730005353B3F54073FF3B44BF00200CBDD3F11F030FD94FEAC12242F0004222FA03F2B3
:206750000B2B3EBF1533D840024300294CBF5042101C0CBD00294FF0004058BF401E0CBDB0
:2067700098B50C4601F054FE002700B101270C480068C06A8047211AB1F1004F08D8011B52
:20679000891DC90F05D1801DA04288BF041C00E0841D044804600FB901F040FE98BDC0462C
