:2000000000400020B556000001C9011001C9011001C9011001C9011001C9011001C9011053
:1C00200001C9011001C9011001C9011001C9011001C9011001C901103FC9011089
:20003C006B482DE9F04FADF1140D009069480190694802900020014600F05CFA674C002147
:20005C0004F11405A060284600F058FAE560664D05F1180005F10C0103F016FE6049A86005
:20007C0006F020FF5F4EA8684FF4E0213246521E05F006FEA8684FF4E021324605F000FEAE
:20009C00D44EA8684FF0C0513246521E05F0F8FDA8684FF0C051324605F0F2FD05F04CFAF9
:2000BC00D648002168604FF0804004F0ADFE261D3060052184F84710012084F843000621AC
:2000DC0084F848104FF0000884F8428084F84F80454684F85180022084F84400072184F802
:2000FC004910032084F84500082184F84A10042084F846002C3684F84C00092184F84B1097
:20011C00512084F84D00402084F84E00B02084F8500056F82530184606F0AAFD0FF23C3AAE
:20013C00C7B251463A46184606F022FA18B16D1CEDB2042DEDDB042D58D0C74BC7F1150180
:20015C00524604F1880B46465FFA81F91D7002EB070AB1451ADD0AEB0600454604905BF81F
:20017C002530184606F084FD0499C7B23A46184606F0FEF920BB0E2D26DAB7485146324634
:20019C00401C03F0BFFEDA483018C570B248D849B14500F10100314404DC09F101055146A9
:2001BC004A4609E0081DB919A9EB0602A9EB0705C9B2D21BAD1C514403F0A4FE657017E050
:2001DC006D1CEDB20E2DCADB761CF6B2C1E7C0464D35000029260000F14F000008020020D8
:2001FC00655C00000E000580280A002084F80180B14D01202870B148A86005F095F8B0480E
:20021C000078AA46002840F09980AE4D686898BB05F10806304606F0EFFC4046AA49A860EF
:20023C0005F15402E961117805F1540768F302011170397805F1540368F3C30139701988EC
:20025C0005F1550221F47C7141F434711980117868F38201117006F003FBA5F856009C490C
:20027C009A4805F144023346A86505F1B00001F05DFC6860002861D005F16803424624356B
:20029C001146C80001F1250600EB0110C01800F10F0786733E7868F306063E70056100F110
:2002BC000C073E78491CC9B268F304163E7003294261E6DB03F10C010878022503F13C07E7
:2002DC0065F303000870387803F1240668F303003870307868F303003070C3F8388003F14E
:2002FC002507C3F820803878294603F10D0661F303003870307861F3030003F13D01307065
:20031C000878012767F30300087003F118055D6003F13006DE616F485A6305F085FB684973
:20033C00C860102005F07CFF071C05D03D1D4146284600F0E3F83D60CAF80C70664E307890
:20035C0018B1012818BF022811D1644805F06CFB6946B0600EC906F10C0080E80E006048ED
:20037C005749604F486001208F6002F06FFB6068414640A30A4606F030F8606801214246EC
:20039C0042A306F02AF860680221424644A306F024F8DFF85891A068534A41464FF0FF337B
:2003BC0000F0B0F8E06800F0B1F80028F3D1E068054600F0AFF8854208BF454602D08568BA
:2003DC0006F040FB002DEDD02888401E04D0401E36D03CE00E000010A878277801090FD2BC
:2003FC00400934D3A078002807BF1020A07084F80280404602F0E0FF29E0C046616F000017
:20041C003FB1307830F0010021D0022002F01EFB1DE004F0BBFE1AE0DAF80C00006800F00F
:20043C0079F8039060B1017A59F82110884706F0FBFD0746039806F005FB384606F0F8FD8A
:20045C00DAF80C00006800F061F80028E4D0284606F0F8FAA6E7C0465E02002068747470EC
:20047C003A2F2F7777772E74692E636F6D2F626C6500C0462A4D6963726F456464797374F2
:20049C006F6E65426561636F6E00C0463C2042636173742053746172742F53746F7000C0A4
:2004BC0020426561636F6E204D6F6465204368616E6765203E00C046B80A0020796F00007F
:2004DC002C0C0020700500205D600000480C00206C760000DD6C0000FC0B00205D680000CB
:2004FC00B56500008959000003000040447700005C020020DFF800F02DB40110DFF800F0E8
:20051C00A1B60110DFF800F0F99B0110DFF800F04FBF0110DFF800F019BD01102DE9F04F02
:20053C0009AFADF13C0D08900A92388809911E46ADF81800101C08BF002000F075810178DF
:20055C0000274FF0010B401C4FF0FF39B846DA460A9061E1252940F056810178401C0A907C
:20057C002D2918BFADF8068004D10178ADF806B0401C0A9030291CBF4246434604D10178D5
:20059C00401C5A465B460A902A29CDF800804D4617D1049330680A9BCDF80890C01C20F0D8
:2005BC000300001D306050F8044C1978002C009403F101000A9018D5ADF806A06442009485
:2005DC0013E044460AE0600000EBC4004018A0F130040A9801780094401C0A90302901DB92
:2005FC003A29F0DBCDF8089004932E2929D10178401C2A290A9011D13168CDF80880C91CFD
:20061C0021F00301091D316051F8045C002D48BF454601782B46401C0A9011E045464346A5
:20063C000AE0680000EBC5004018A0F130050A9801782B46401C0A90302901DB3A29F0DB99
:20065C0002930AB1224604926C2904D04C2918BFADF8048004D10178ADF804A0401C0A90C5
:20067C000BA8CDF80C800FAB07906429059300F0828069297FD0BDF818C075296DD0782908
:20069C0069D06F2965D070294ED063293ED0732922D00A98401E0A90099801281AD9664953
:2006BC000C68B5F1FF3F03D0A84288BF6D1C05D86FF00041814294BF0D1C099D029508A890
:2006DC000AA932466B46A04709993F18091A0398099165E0454617E03068C01C20F003009C
:2006FC00001D306050F8040CBCF1010F014608B94FA00146079106F0BBFA0390B5F1FF3F24
:20071C004FD0A8424DD9039528464AE03068C01C20F00300001D306010F8040C8DF82C0061
:20073C005D46039558463CE0082035680490E81C20F00300001D306050F8041C08221023C6
:20075C000FA804F061F8401E079040210170079823E0082302E0102300E00A233068C01C4F
:20077C0020F00300001D306050F8041CAA42BCBF2A1C04920DE03068C01C20F00300001D61
:20079C00306050F8041CAA42BCBF2A1C04926FF009030FA804F038F807900599081A0390D2
:2007BC00009C241ABDF8065000945DB906E008A8202109AA05F03BFE009C7F1C641E009489
:2007DC00F5D50398401EB0F1FF3F03900FD1BDF8060001281CD10098401E009018D408A8F5
:2007FC00202109AA05F023FE00987F1CF4E70798017809AA08A805F01AFE0798401C0790AB
:20081C0003987F1CDEE708A809AA05F010FE7F1C0A980178401C0A9000297FF49BAE08982A
:20083C0008B14146017038460FB0BDE8F08FC046286E756C6C2900C0DC780000BB482DE94B
:20085C00F84F0025BA4CB849056094F8E200002800F06581012800F02F81B64E02283CD035
:20087C00032840F05C8151F8250CD4F8B8100029A0F5C060C4F8D400B8BF49420028B8BF07
:20089C004042814226DA4FF08057D7F8A4014568B4F8BC0030214FF47F42082300903046D2
:2008BC00A847D7F8A4014568B4F8C00004214FF4F802122300903046A847D7F8A401B4F8F4
:2008DC00D070456820214FF440620A2330460097A847012584F8D8501CE151F8258C06F009
:2008FC00CFFA2F4600B901273946934F38680028FCD0B146012609F10409D9F82CA03E6068
:20091C0009B106F0C3FACAF30720C4F8BC0006F0B7FAAA4600B9B2463B68002BFCD0D9F83F
:20093C0000B0BAF1000F3E6001D006F0AFFACBF38440C4F8C00006F0A3FAAA4600B9B246F1
:20095C003B68002BFCD0D9F81C90BAF1000F3E6001D006F09BFAC9F38120C4F8D000B8F51A
:20097C00C061C4F8B81000F09C8094F8D80068B9C4F8D410D4F8C000C4F8C800D4F8BC707D
:20099C00C4F8C470D4F8D030C4F8CC30D4F8D400D4F8BC30002854BF02226FF0010204F1B9
:2009BC00C8010F6800EB40008018421000EB927207EBA2000860D4F8C810C4F8C43000295E
:2009DC001CDD1E293CDDD4F8CC0030B93429B4BF15391E21C4F8C81025E02A29BABFD4F893
:2009FC00C8000B381E20C4F8C800D4F8C4003F28B4BF401C3F20C4F8C4001FE0D4F8CC00D2
:200A1C00032812D011F10B0FC6BFD4F8C8000B30301CC4F8C800D4F8C4000028C4BF401ED4
:200A3C00051CC4F8C450032508E011F1150FC6BFD4F8C8001530301CC4F8C800C4F8CC506D
:200A5C004FF08057D7F8A401B4F8C43030214FF47F424568374800930823A847D7F8A401AE
:200A7C0004214FF400321123456832480096A847B4F8C860D7F8A40104214FF4F802122301
:200A9C0045682C480096A847D7F8A40120214FF440620A23B4F8CC60456826480096A84755
:200ABC0001E084F8D85040F2FF50404502D8801C40452FD2082030E051F8251C1F4F4BF226
:200ADC00F5204843060A3868C0F3814001280CD11B4800680068804704F0E4FF06F0DCF994
:200AFC003111C010484306EBE03694F8E50030B91448006820F07F403618760801E084F820
:200B1C00E5501148310C0660012741600F4D8760287808B90B2000E0052084F8E40001F09A
:200B3C00D5F8BDE8F88FC0462D400C402C500C40AC07002000A00C4000800C40B43F00504B
:200B5C00EC010010102009403C600C40197800002DE9F84FDFF8B4920F460446F80B80F0FE
:200B7C000981A54EDFF88482B80F80F0BA80B80880F0AE803809C0F02F81082006F0A4F9D4
:200B9C00002840F0A080802006F09EF9002840F09A80684603F068F9012803D10098002863
:200BBC0000F0918090480078002840F08C8000250124E8B206F034F848B1837A3BB1847286
:200BDC0090F9090004FA00F0C0B205F069F96D1C032DEED345460320287405F1AC0006F054
:200BFC00FFF983480168002398461A46036050F8081C804940F8088C05F1340006F0FAF9D5
:200C1C00404602F074F93068006B8047A968401A010BA869C1F1FF3282422CBF08444FF064
:200C3C00FF30A861287F20B1E868A969B1EBC02F25D905F0B5FD414600B12146081C1BD0A8
:200C5C006E4840F60901018043464380417B04F00F0221F00F010A434273017B03F00F064D
:200C7C0021F00F0146EA01020273436006F07EF8418811F4406FFBD02C774346AB6104F00C
:200C9C002FFF5F48444641460460022005F0BCFC022005F0D1F8112002F0ECFB287818B9C4
:200CBC006868383006F0AEF95648007810B90E2002F0E0FB687F18B16C77052005F0BCF808
:200CDC00514868612C7403F0DFFF27F0080783E001F0B0FF45467435286808B927F0020757
:200CFC007AE006F081F9B3468246DBF85400016804208847D8B1207CC8B1454608352868D4
:200D1C00A8B10646DBF80000E568006B8047801BE060000BE060A84202D240194008E060FB
:200D3C0040F6C41181422CBFB0F5FA7FE160504600F06EF804F0DCFF90B1A56920466FF4AC
:200D5C00807100224FF00073A847464606F16C052868002808BF47F0020701D003F094FFB9
:200D7C002046646900214FF080630A46A04727F0005731E006F038F949460E6846B306F10F
:200D9C00280106C90A234FF0E0450B40154008BF002B1DD106F1280191E8300006F1280343
:200DBC0093E8060006F12803AA43A14383E8060000F02EF8B16869B1002D08BF002C09D0F0
:200DDC0030692246B6F93C10B4682B46A04701E000F01EF827F4804727B148463946503059
:200DFC0006F018F9BDE8F88F890E0020F00C002014100440394F00008C01001024150020EB
:200E1C0000000460767800000D2F0000700D0020DFF800F061C001102DE9F04FADF1240D6E
:200E3C00079001F05DFB5F48007805F015FB5E4D0024012806D90C3804D0401E0ED0401E09
:200E5C0009D006E005F0AAFD022804BF01210C1C06D0696805E005211F2401E003210724BF
:200E7C006960524A1068C0F38150012806D152F80C0C0127020E07FA02F0044305F06EFFBF
:200E9C0005F1440AFF2253464018401E471C28607F1E03F8012BFBD1079A1268002602F0D4
:200EBC00FF03FE2B1DD0DDF81CC0964633460EF0FF07FF2F0ED0B84205D3B94203D801221D
:200EDC00BA40144201D0022069E016430EF0FF020AF802305CF804EF5B1C0EF0FF07FE2FEF
:200EFC00E7D1092002F080FB07980121A86005F1280005F005FA00274FF0010BB9462846CE
:200F1C00804600F198050BFA07F0044216D1064204BF07F0FF0141F4C04104D01AF8070013
:200F3C00079951F82010224801F00CFEF8B24FF0FF3105F005FCC5F8009001E0042028602E
:200F5C00D8F800007F1C2D1D8742DCD904A805F0EDFE184C184A2078102104AB059008F1EA
:200F7C000C0004F023FD684605F008FFCDF80C906A4660681149029008F1640004F0ECFD8C
:200F9C000F4951F80D0C20F4F85040F4005041F80D0C0C4FC1F8FFBF4846C7F800B009B0C1
:200FBC00BDE8F08F7115002098060020B43F0050007FC76798780000F968000009580000CB
:200FDC000D3009400800094013460A461946436823F00C030AB143F0080309B143F004035C
:040FFC004360704797
:20100000B41200001810000015AB0110FDB301106DC00110FDAE011099B5011000000000F7
:08102000000000002D0000009B
:20102800B01200003C100000B1C00110A9BF011067C0011069B80110000000000000000035
:041048003000000074
:20104C00B012000060100000BDC00110CDB30110D9BD01106DB3011000000000000000005B
:04106C00310000004F
:2010700000000000640C002004000000000000000000000020000000E8C9011030000000BA
:20109000281000006C0C00200400000000000000000000000C000000D8CA01101800000095
:2010B0004C100000740C002004000000000000000000000024000000F0CA01101800000019
:2010D000000000007C0C00200400000000000000000000001000000018CA01102C00000025
:2010F000001000008C0C0020040000000000000000000000200000006CCA01102400000089
:20111000FFFFFFFF940C00200400000000000000000000002800000090CA01102400000048
:20113000FFFFFFFF9C0C00200400000000000000000000001400000008CB011018000000C7
:20115000FFFFFFFFA40C002004000000000000000000000058000000B4C901103400000095
:20117000FFFFFFFFAC0C00200400000000000000000000001000000020CB01101800000063
:20119000FFFFFFFFB40C00200400000000000000000000001C000000B4CA01102400000090
:2011B000FFFFFFFFBC0C00200400000000000000000000003800000044CA011028000000B8
:2011D000FFFFFFFFC40C00200400000000000000000000005400000078C901103C0000002D
:0811F00001000000D0780000AE
:0411F80001000000F2
:0411FC0000000E00E1
:0412000000000F00DB
:0412040032000000B4
:0412080001000000E1
:04120C00140C00209E
:0412100000020000D8
:0412140000000000D6
:0412180001C90110F7
:04121C0000000000CE
:0412200000000000CA
:0412240008000000BE
:0412280000002200A0
:04122C00F40A0020A0
:0412300000000000BA
:0412340000000000B6
:0412380008000000AA
:04123C00BC0B0020C7
:0412400000000000AA
:0412440000000000A6
:04124800080000009A
:04124C00000000009E
:04125000000000009A
:041254000000000096
:041258000000000092
:04125C00010000008D
:041260005C0B002003
:041264000600000080
:041268000100000081
:04126C00DC09002079
:04127000000000007A
:041274000000000076
:041278000002000070
:04127C00000000006E
:02128000290043
:02128200010069
:02128400250043
:02128600300036
:02128800310033
:02128A002D0035
:02128C0001005F
:01128E00015E
:08129000030000008C7800004F
:0812980000000000000000004E
:0412A0000000010049
:0412A4000000030043
:0412A80013C401105A
:0412AC00AB6B000028
:0412B000B812000070
:0412B400B81200006C
:0412B8000000000032
:0412BC003C0C0020C6
:0412C000276D000096
:0412C4002000000006
:0412C800307800007A
:0412CC001C7700008B
:0412D00029C101101F
:0412D400835A000039
:0412D800EB5D0000CA
:0412DC00A1C7011095
:0412E000A3C701108F
:0412E4000000000006
:0412E800A7780000E3
:0412EC00B8750000D1
:0412F000D0750000B5
:0412F400A0750000E1
:0212F8000200F2
:0212FA000900E9
:0212FC000100EF
:0212FE000000EE
:0113000001EB
:04130400A16C0000D8
:041308007D5D000007
:04130C0091660000E6
:04131000F55F000085
:04131400B55D0000C3
:041318009D550000DF
:04131C00AD420000DE
:041320008F6E0000CC
:04132400954F0000E1
:0413280015C70110D4
:04132C0025C70110C0
:201330002DE9FE4F05467B48002400680094C00905D37948007810B9202004F0EBFD012D1F
:2013500040F0E280DFF80092D9F8DC00012840F0D8800220C9F8DC0005F03EFB012004F022
:20137000D9FD5FEA000805D00120C9F8DC0005F03FFBCBE005F050FEA34602906748684DA7
:20139000C0F800B0A86A016801208847012804D1584603F0E3FA012000906248624FC0F83A
:2013B00000B03868112005F08FFD00B10124102005F08AFD08B144F002040F2005F084FD01
:2013D00008B144F004040B2005F07EFD20B12868564E016B308888470A2005F075FD20B113
:2013F0002868534E016B308888475248012606602868816944F0200088474F48066005F003
:201410005DFD00F001010191400814D2286A81684A4888478246BAF1040FF7D0BAF1010FCC
:2014300004D1286A42684548032190474449086820F003000860584600F088F82B6838684A
:20145000986B8047019801280CD0BAF1010F04D1286A42683948314690473949086840F057
:20147000030008602F48066028684169204688470B2005F029FD20B128682C4BC16A1888BC
:2014900088470A2005F020FD20B12868284BC16A18888847274806600322C9F8DC20264B9B
:2014B000C3F800B02868416B204688470128F9D13868042004F02EFD0446184806603868BA
:2014D000144800688009FBD30098012802D1304603F044FA05F0E0FC082004F01BFD074654
:2014F0000298C9F8DC6005F08FFE1648008803F021F905F07DFA57EA040018BF4FF0FF38D2
:2015100004E06FF0040801E06FF001084046BDE8FE8FC04614100940940800200C400940A7
:20153000B8010010000222432C200940387500003475000028200860800104430040034085
:201550002422084014780000AC0700202DE9F84FDFF804B20746ABF13500DFF8F0810068D6
:20157000800880F0E28075480068006880477E490831D1F8009000254FEA29715FEA995228
:2015900001F101010AD2C0F13E0210F10A0F4FEAE202D8BF08229142B8BF111C684BD3F88D
:2015B0007C21C2F30462162AA8BF203A1B68C3F30443162BA8BF203B9A465218162A05DA76
:2015D00012F10A0FB8BF6FF0090200E015225D4B5D4E02F01F0141F4F8511980316811F0D1
:2015F000030F18BF0125C90828BF45F002050FB145F00405434693F90710411A052904DA47
:201610009979A94208BF99886FD0DFF844E10F28A0F10F0829DB08EB0011A1F1F0084FEAF0
:2016300028210091072984BF07210091062988BF06215EF821600424774604EB81043C5932
:201650004FEA950CA41BEE0804F0FF0124BFC4F3072631446F08AE0824BFC4F30746314432
:201670006E0828BF01EB146104E000214FEA950C6F080091009C5EF824E05FEA5C060EF016
:20169000FF0424BFCEF3072634447E0824BFCEF3074634446E0828BF04EB1E64009E89B258
:2016B000A8EB06267143803104EB1124AAEB02010029D8BF0121342209F0FF074A4391B233
:2016D0004FF6FF727943B1FBF4F18A4238BF111C802889B2998005DA10F1800FB8BF6FF0C6
:2016F0007F0000E07F20D8719D711A4800681F2918604FF0000008D340F2FF128A4206D2FA
:201710004908401C8A42FBD301E01F219980134F0F39090940EAC10047EA0001CBF8FB1F82
:201730000026CBF8FF6FBDE8F88F0D490D4F434608200F609B1D1870BDE8F88FEC010010DB
:201750003C1100506E62084024220840601500209C130050082009403500094000E7A480A8
:2017700030100940FDFDA400AC3F00502DE9F0411C4615468C4208BF854282BF0023002211
:20179000E5E0002C08BF002D0AD100290EBF00286FF000006FF0000100F0E1F8BDE8F081BD
:2017B0005FF000085FF0000E002C08BF8D429CBF2C1C0025070C47EA01470E0CB44208BF78
:2017D000BD429EBF5FEA044444EA15445FEA0545070A47EA01670E0AB44208BFBD429EBF17
:2017F0005FEA042444EA15645FEA0525470847EAC1774E08B44208BFBD4200F293808708F0
:2018100047EA81778E08B44208BFBD427CD8C70847EA4177CE08B44208BFBD4266D8070951
:2018300047EA01770E09B44208BFBD4250D8470947EAC1674E09B44208BFBD423AD8870996
:2018500047EA81678E09B44208BFBD4224D8C70947EA4167CE09B44208BFBD420DD8E60108
:2018700046EA5566EF01B14208BFB84201D3C01BB14158EB08085EEB0E0EA60146EA95669E
:201890004FEA8517B14208BFB84201D3C01BB14158EB08084EEB0E0E660146EAD5666F0124
:2018B000B14208BFB84201D3C01BB14158EB08084EEB0E0E260146EA15762F01B14208BF4F
:2018D000B84201D3C01BB14158EB08085EEB0E0EE60046EA5576EF00B14208BFB84201D34D
:2018F000C01BB14158EB08084EEB0E0EA60046EA9576AF00B14208BFB84201D3C01BB1417E
:2019100058EB08084EEB0E0E660046EAD5766F00B14208BFB84201D3C01BB14158EB080817
:201930005EEB0E0EA14208BFA84201D3401BA14158EB08085EEB0E0EA34208BFAA423EBF40
:201950002D0A45EA0465240A89D3734642461E4617460B46024631463846BDE8F0817047C1
:201970002DE9F0430546880FADF1140DC0F0D2806A4C201D006840688768C668406800B1F2
:201990008047002F08BF002E08D005F045F907B1B84706B1B047624804F078FD614805F02B
:2019B000EBF9012001F0A9FA5F4A40F60A0CA2F800C000205080117B00F00F0321F00F0190
:2019D0000B4313735060517B4FF0010808F00F0721F00F0147EA01035373AB686E7C588060
:2019F0001988A1F60201C9B141F21E07C91B15D041F6E677C91B012920D8597E012E60F30E
:201A10008201597606D0198B21F47C7141F43471198313E0198B60F30911F9E7597C012E8A
:201A300060F38201597405D0198A21F47C7141F4347102E0198A60F309111982D5F80890AD
:201A5000687461464E4600E03E46776817B13B889942F9D17260737B00F00F0723F00F0301
:201A70001F437773E76E3FB1FB681B88CF1F9F4224D0891F994221D02F8C07B3686205F153
:201A90002003588095F82C1000F00F0721F00F010F4385F82C7095F82D1008F00F0721F0F7
:201AB0000F010F4385F82D705360517B00F00F0721F00F0147EA0100507300E0A060484691
:201AD000694604F023FE684605F046F905F0A4F816486061607F80B91548006801684046D4
:201AF000884701280FD0707B08F00F0120F00F00014371730F4F676105E003F09DFE002804
:201B1000FBD005F081FA484605F036F94946404604F080FD05B0BDE8F083C046F00C002053
:201B30000100070601010E04241500206D0B0000E0010010A15000002DE9F043044658488D
:201B50000E4601681F461546ADF12C0DB6B1ADB130784FF0010808FA00F001420ED0104603
:201B7000002103F035F86660A56005F043FA4D4D8146287820B14846FFF750F900208CE0EC
:201B900000F0B4FC4849086840F00200086007A805F0FAF8454E4649707807AA099005F11A
:201BB000D00003F0DFFF434905F5827007AA03F0D9FF07A805F0C0F8192107AB30783E4A08
:201BD000089005F1340003F0F7FE3C4A05F150001A2107AB03F0F0FE3949002205F188008F
:201BF000134603F057FB3749002205F1AC00134603F050FB344A05F120000421002304F08C
:201C10006DFCB078012802D10E2001F0F3FC05F1740004F0E3FF05F16C0004F0DFFF00267F
:201C30002E772E74AE61072085F898016E770523AE60264AEB602B781670581C2870244989
:201C500069614846FFF7EAF81FB9684604F0DAFF6F46386841462060388A6174608278683C
:201C7000002806BF40F6C41021742674E0601948A0616061F86800B1A061B86800B1606127
:201C90005822314604F1200002F0E2FC04F13800314604F03BFB6C6020460BB0BDE8F0838B
:201CB000D4210840F00C00200020094074780000316A00007D310000394F0000A94A0000A2
:201CD0009D6700001569000095530000701500200D2F00005B3B00002DE9F843614C5A4D6E
:201CF0005A4EDFF870815E4F94F8E4100846401E0B2864D8DFE800F07B2C430623430623E6
:201D100043067664042907D001220A2945F8212C14BF0220032004E0202045F8210C0120E5
:201D3000024684F8E200002045F8390C0827C5F8FF7FC5F8F37F45F8392CBDE8F8830529C2
:201D500014BF09200620002784F8E400376075E094F8E170383D0120002FC5F81B0004BFA1
:201D70000620002102D00021F160032084F8E400032045F8010C3160306880085ED294F86B
:201D9000E4103348012703290ED00068456800216022052300914046A84794F8E40006280E
:201DB00014BF0A200720CFE700684568002160220523022000904046A8470420C4E7FEE77E
:201DD0002548264F0026012506600E203D6001F057FB022004F036F884F8E45084F8E3609E
:201DF000BDE8F883002038600C25786024E04FF08059D9F8A0010168202088472C3D0F2054
:201E100045F8010C41F61D56C5F80360D9F8A401466800214FF4C072072302254046009578
:201E3000B047D9F8A401C66800214FF4C07207234046B0470120386084F8E45004F17800E4
:201E500005F0D2F8BDE8F88339400C4038600C40A401001000A00C402C500C4004800C40B1
:201E700034600C40AC0700202DE9F0414B484A4908604B48FEF7D6FF4A4C01210A462046FF
:201E9000FFF7A8F848480068426801212046904703F0F0FD03F04EFF444D4548454FDFF8F2
:201EB0002881686057F81D0CC00851D242495CC905F15C005CC05CC95CC01EC980E81E0072
:201ED000424CE96EB5F86A200126FF235534C4F8AB3F3A48C4F8FF6F02F01AF8A86F8047D0
:201EF00042F60B3542F22B0044F8550C344944F8515C4FF480730B60002244F8212C44F870
:201F10003D6CC4F8B36FC4F8F36FD4F8F30F05F099F857F81D1C2B4A41F0040147F81D1C0D
:201F3000116821F0F05141F03451116005F08CF8414601F12400006804F006F805F02FF813
:201F500005F036F804F01AF805F02CF805F03CF805F078F841460A684B68120442EA13425E
:201F70000C310832CA604FF480370F610A6842F4A0220A60D1F8F02F22F01F0242F02502FE
:201F9000C1F8F02F05F060F8012001F0E3FC05F037F90020BDE8F081600C0020852200008D
:201FB0007475000000400340D801001050090020515200002D1009403C76000000000E401A
:201FD00000100E40003009400820094000500C402DE9FF4104466668A7680D4605F00AF846
:201FF0003178012903D1FEF719FF00208EE001213170FEF713FF287870706878B070686875
:202010007060A868B060E868F06028693061287D3075687D7075A87DB075A869B061287FD7
:202030003077687F7077A87F4FF0000843461D4686F82851B07786F82951C6F820803363B7
:2020500075627563B562B56386F82C5086F82D50786801F0CFFA204601F0A8FF204601F0AE
:20207000F1FF60B9386804F061FB786801F008FA04F0C0FF3570FEF7D1FE2C4645E0684623
:2020900004F05AFE0094387B224A0190B9686B4606F17C0003F090FC684604F075FE009433
:2020B0001D4938696A46029006F1980003F05AFDB07830B906F1CC00294604F027F9174838
:2020D0003061707830B906F1E800294604F01EF91348F060684604F027FF01958DF8005057
:2020F0001049029406F582700A226B4603F0D2F8B969FA6906F13C0004F0F2FD0A4A06F174
:2021100068000421234604F0E9F920460090BDE8FF81C0463D210000C54D0000816F000062
:20213000716F0000E5550000096E00002DE9F84F8046D8F808603068D8F80450076CDFF89D
:2021500030B14764AB6B6A6C286C17F4F06F1946A0EB020934D1F8091ED2780974D3B1B1E4
:2021700096F821205846801D845C601E814294BF1C1C641E4046214604F02AF8A86B001BE6
:20219000A86361D105F19800012104F049FF4046494604F0DFF957E00029F8D0404604F083
:2021B00017F895F82D10A86311B900284CD101E00020A86305F19800012104F031FF43E019
:2021D000F80A20D24FF0000A544602E0AB6B5B1EAB6393B14046012103F0FAFF306844687D
:2021F00014F00F04C0F804A0F0D0286B401E2863686B401E6863A86BE8B905F198000121C0
:2022100004F00EFF13E0306844680022202904F00F044260CCBF4FF0200A9A464046514671
:2022300003F0D6FFCAF120008145C8BF81464946404604F08FF9EC77404603F015F9726A80
:2022500012B1404621469047B8090FD3A96A69B10F46404604F001F8A86238B996F8202086
:202270005946895C4046C91903F03CF8BDE8F88FF47500007CB54E4D044668680E4628B98B
:202290004FF00040002102F0C5FD6860002127A30A4604F0A8F8204628A3801E04D0801E02
:2022B00037D0401E22D00EE06868012E05D000210A4604F098F824A331E000210A4604F0C3
:2022D00092F826A32BE0686800210A4604F08BF868680221002227A304F085F801208DF8E2
:2022F00001009DF801000028FBD17CBD686800210A4604F078F868680221002223A304F096
:2023100072F801208DF800009DF800000028FBD17CBD686800210A4604F065F81FA36868B7
:202330000221002204F05FF87CBDC0463E3E3E535441434B20415353455254002A2A2A45D9
:2023500052524F522A2A2A003E3E20494E5445524E414C204552524F522100C03E3E204941
:202370004E5445524E414C204657204552524F522100C0463E3E2044454641554C54205397
:2023900050494E4C4F434B2100C046C03E3E204943414C4C2041424F525421003E3E204F91
:2023B0005554204F46204D454D4F52592100C046080200202DE9FC4705466E68D5F8088096
:2023D00037780FB1B76B1FB14FF0FF30BDE8FC8731630024F477171C74631BD006F13C09A2
:2023F00004F008FE82466946484603F004FB00281ED45046FEF712FD9DF80000316B08707F
:20241000306B736B7F1E00F10100306303F101007063E5D17078726B316B0128A1EB02017A
:20243000316303D1F36828469847726B144659E0B763D8F80010086B40F400700863D8F8C0
:202450000010886B40F4FA6088635046FEF7E6FC06F5947004F0CAF9707806F5947768BBBC
:2024700004F0C8FD96F82D1069B1716B59B1B16B49B1B463FEF7D2FC06F5947004F0A6F946
:20249000706BBDE8FC87FEF7C9FC716806F1E805284604F02EFC0028F2D0B4632846214650
:2024B00004F027FC0028EBD0384604F08FF91027716B306BF777401A3063E1E704F09AFDBC
:2024D00096F82D1061B1716B51B1B16B41B1B463FEF7A4FC06F19800012104F0A1FD01E053
:2024F000FEF79CFC2046BDE8FC8770472DE9FF47484C94F8E700002876D13E4E01273C48F0
:20251000F57C84F8E770736884F8E6500068C4F81031C0F3801084F8E800684604F004FD2B
:20253000002504F10C0001956B468DF80050324902952A4602F0AEFE304904F130006B46DA
:202550002A4602F0A7FE2E4904F154006B4681462A4602F09FFEB16838468847DFF8B080C0
:202570002848327D08F104030078284E1868C0F3815A22B1BAF1030F04D184F8E170BAF153
:20259000030F17D0BAF1020F14D0BAF1010F0ED0022003F0A5FD1C4800680168042088471A
:2025B000012804D030683221B1FBF0F10DE003F0F7FA12E0022003F093FDBAF1030F0CBFA6
:2025D0004FF47A7142F210713068B1FBF0F1484604F008FD484604F007FD40460068C00820
:2025F00002D2284603F07CFD00200090BDE8FF871410094004780000CB430000013C00000E
:20261000B547000071150020E00100106C150020B03F0050AC0700202DE9FF414348474CF0
:202630000168434E00270A257D208DF808704843410B400984F82300308884F82210B0FBD0
:20265000F5F184F8241090FBF5F16943401A03F0D6FD0FF2D00898E80C0000F07FF903F0D7
:2026700043F884F825007088B0FBF5F184F82E1090FBF5F16943401A03F0C1FD98E80C0077
:2026900000F06CF903F030F884F82F00206984F82900010E84F82610060C84F82760010A00
:2026B00084F8281004F0A8FD2349224A096814A3B2FBF1F1B0FBF1F52E0C280E84F82D5034
:2026D0003A4684F82B60032184F82A002E0A606884F82C6003F087FE2069009001956068A2
:2026F00004213A460BA303F07EFE202000F06AFE0520012102AA00F003FE0090BDE8FF81D7
:20271000544C4D206461746120757064617465733A00C046436E743D25642054696D653DD5
:20273000256400C09A999999999939402850094068150020A0860100CC780000080200203D
:202750002DE9FE433F4D804605F11A0003783C480021012700F16806344607FA01F2134246
:2027700014BF41F6050240F60102491C24F8182B0329F2DBB8F1010F81461FD0B8F1020F19
:202790001CD0B8F1030F15D0B8F1040F1BD102F04FF90446B46003F0BBFC2B8B49F640423C
:2027B000B0FBF2F15143401A40F6C41101FB0300201807E003F0ACFCB468EEE702F038F9B5
:2027D00000F57A60B06000247480748374864FF000438DE81800D9F80400AA7D1A4B31461A
:2027F00000F0F4FBA9F80000002848BF3C1C24D4B8F1010F21D0287FF8B102F019F9B668AE
:20281000297F4FF47A67361A07FB0170B04214D80F4F3F1FF86804F01DFA0C4801688800CF
:20283000B6FBF0F22E7FF8684FF47A73B3FBF1F18BB203FB162104F065FA2046BDE8FE83D7
:2028500070050020B80A0020794B0000CC780000300C00202DE9F04391460A68D9F80040EA
:202870001678804600271D463846ADF1140D531C242E0B605BD112F8016F5B1C4C2E0B60FF
:202890000ED1AA68E41C24F00304241D54F8040C414602F05FFA2968EF600127091A2960F9
:2028B000462E1AD1E41C24F00304241D54F8040CE41C029024F00304241D54F8040C002780
:2028D00041460390AA68ADF8047001A801F0EAF82968EF600127091A2960532E27D1E41CFA
:2028F00024F00304241D54F8040CE861C9F80040288B0090A968EA69D8F800004B46FDF7CA
:2029100013FED8F80040002754B1A968002902DD8142D8BF481ED8F800100918C8F80010B0
:20293000D9F800402968EF600127091A2960662E0AD12B8B23B9E41D24F00704083403E082
:20295000E41C24F00304241D1FB9E9690E700127EF60C9F8004005B0BDE8F0832DE9FC41CB
:2029700091EA03084CBF4FF000484FF000084FEAC32545EA52554FEAC2264FEA43077F0DC1
:2029900011BF45F0004500210020BDE8FC815FF4E06E1EF1FF0E774555D04FEAC12343EA92
:2029B00050534FEAC0224FEA4104640D11BF43F0004300210020BDE8FC81744543D0E419E8
:2029D000A3FB0501A3FB06E7A2FB06631EEB030E57F1000751F10001A2FB05631EEB060EE4
:2029F00057F1000751F10001FF1851F10001C01951F100014CBF4FF4806E4FF4007E10EBC7
:202A10000E0051F1000148BF641C01D4400049415FF44077FF37E41BDEBF00210020BDE86D
:202A3000FC8117F58067BC420DD24FEAD02040EA41504FEA41014FEA113141EA045141EAB4
:202A50000801BDE8FC810020FF21C900C91D090551EA0801BDE8FC812DE9F843074604F046
:202A7000EBFA384C80462078874208BF002763D0354BA168E2881D687F1E52D07F1E31D0C0
:202A90007F1E04D07F1E39D07F1E4CD034E004F0D3FA2E4E81463078F8B900200621024656
:202AB000034602F027F9071C04BF01203070484604F0C6FA381C3ED1A78867B1E68856B1A3
:202AD000A0684FF47A716422B1FBF5F189B27943514304F017F9032024E0484604F0B0FAB6
:202AF000012028E0084604F0B5F82078032801D102F03EFE022015E002201CE004204FF44F
:202B10007A7720706426B7FBF5F080B2504306FB00F20846114604F0F5F802F029FE207814
:202B300001E0012020708DF8000001206A460146034602F0DFF80746404604F081FA384684
:202B5000BDE8F883FC0B0020CC7800002C0C00202DE9F84F0C4605465FFA84F8200824BFA8
:202B70003148444031494FEA8803C85884EA00022A40C2F300672E4A05EA0406A843324026
:202B900005F4E0260243B6F5E02F01D1500E14D305F4E020074310D002F4E027B7F5A0277D
:202BB00007D0B7F5803704BF22F4003242F4A02203E022F4803242F4C022DFF878B01E4F99
:202BD000012000FA08FACBF800A0DFF87090CA500146386801FA08F60027064218BF0F1C23
:202BF00037B9E80D04D34946C4F3805001F80800280E0DD304F0FEF9210E34BF0021311C61
:202C10000D4A1268B24311430B4A1160FEF706F937B1E80D04D34846C4F3805100F80810F6
:202C3000CBF800A0BDE8F88F006000A000100840007F077FE0200260D020024000200240A2
:202C50002DE9F843384C143C606F656F04F17409002866D00646F06840F603020827531C4F
:202C700002E040687F1EFFB260B15FB101888A4218BF8B42F5D131694CC820314CC189C82F
:202C900081E8890005F1280090E80C00002705F12806B84686E88001A96879B138464FF060
:202CB000E24100EA020611EA03070EBF002E02400B40AE682869B5F93C10B04704F09AF943
:202CD0000646B4F986004746401C6FF31F30A4F88600484685F83F7003F0E4FC3046FEF7B1
:202CF0009DF8B4F984106068B4F986300246994217D192F8701000290CBF0068381C82F884
:202D1000707060B1B0F1FF3F0BD008490968AC34B0FBF1F1204603F035FFBDE8F88303F029
:202D3000F1FDBDE8F883C046040D00206C150020F8B504F0ABF801F047FE04F0BFF805462D
:202D500005F00C000C2854D0E80826D203F00AFB2A4E376804460120014603F0B6FD316822
:202D70006143884219D22649F020B0FBF7F0241A887C18B1C868A04238BF041C214D2146D0
:202D9000284604F035FA284604F02EFA0120FEF7C7FA284604F024FA2DE0280929D21A4C12
:202DB000A4F1200620688168184888470746042FF8D01748690905D227B101460A6822F015
:202DD000010203E001460A6842F001020A6098310A6842F003020A60306881692020884738
:202DF0000C4C37682068B86B804701202060206801E004F0EFF804F04FF8F8BDCC78000041
:202E100004780000B8070020D8010010004003408C2108402C2009402DE9F04707467D68D2
:202E3000BE6890468A4604F0E5F881463068006B00F48071287800B119B14846FDF7EEFFAC
:202E500057E005F5827004F0D1F80024EC77C5F820A06C623168086B40F480700863484687
:202E7000FDF7DCFF05F2291003F0C0FC4146384603F0F3F905F22919A862A8B93846414607
:202E900002F030FAA878D0B9A96805F1CC0003F030FFE8B1AC621020E8773146284601F05C
:202EB00055FB05F2291022E004F0A4F83268916B41F020019163FDF7B1FFA87810B1204629
:202ED000BDE8F087A96805F1CC0003F012FF10B9686ABDE8F0873846414602F003FA102014
:202EF000AC623146E877284601F030FB484603F06DFC4FF0FF30BDE8F087704738B52A4CC6
:202F10000D46A8083FD2E8084CD32F4854380068006B8047A060E06E00280EBF606800696D
:202F300060604068214900780860022003F0D8F8112000F05FFB01201D4D2074287810B9E7
:202F50000E2000F057FB60684168886808B9C86810B1184803F010FF1749184D072000236D
:202F70000860296816482B606A686B60154B2A68636140EA02011A20296004F03DF81920BA
:202F900004F03AF838BDFFF75BFE204600F17401096811B901F07EFE38BDD03045F0020116
:202FB00004F03EF838BDC046F00C0020D0210840767800005100070600000460141004406F
:202FD0000200004071190000E00100102DE9FE4F894605460CAF97E803001E46019190469E
:202FF000009004F007F82C4F6FF0010A834608203F1F07F5D07494F83F3033F07F033ED11B
:2030100007F1AC0003F0F2FFB7F98400401C6FF31F30A7F88400C4F80C9084F83E80A6601C
:20303000B7F88400009AA0870198022320211343002242EA000617482561314004F118067A
:203050001840134686E8030004F1200686E80C006363214623634FF0FF36A663802284F85B
:203070003F2007F16C0085F8703003F02CFBF86E844201D101F00EFEB4F93CA003E0401E81
:2030900004F14004B7D15846FDF7C8FE5046BDE8FE8FC046FFEFFF9FF40C002070B5304CEC
:2030B000407AA1686278801E54D02E4D401E43D02D4E401E1FD0401E06D0401E4ED12078A4
:2030D00001284BD1012034E004206070012088472078012842D12878012839D0B6F900101D
:2030F000002933DD34466068002203F0BAFE6FF0010020802AE0032A30D101F099FC703614
:203110002278316800F57A6081420FD82878A168012803D0012A21D102200AE00420607031
:20313000012088472078012812D070BD012A15D10520FFF705FB70BD012060700020884786
:20315000207801280AD12878012801D00420F0E70320EEE7032060701520884770BDC0460C
:203170002C0C0020B80A0020700500202DE9FE4FDFF8C08098F8990100284FD0002501213E
:203190002C4698F8992101FA04F0104203D1641C032CF6D342E098F899211020A040104208
:2031B00018BF0D1C03F026FF98F899211121A1408A4388F89921FDF731FEE0B203F036FDA8
:2031D00060B3877A57B390F9099019490768012D446851F82960019710D0017A02290DD126
:2031F00000F1100191E8000C00274FF0805317EA0B0703EA0A0108BF002901D101F0E6F962
:20321000012D04D0009600224FF0006303E000224FF00073009201984946A04798F89901C0
:2032300020B108F58270002103F0FAFEBDE8FE8F94300440F00C00202DE9F04116468846EB
:20325000044603F0D7FE07462A488325B8F1080F32D8DFE808F0463F3C313725150533C001
:203270000446207CD0B9E06EC0B9316804F1D00003F0D8FE316804F5827003F0D3FE32E087
:203290000446207C50B9E06E40B93168192003F0B9FE31681A2003F0B5FE24E0002522E0C8
:2032B000306828B1012807D1802002F0FFFD1AE0802003F035FB16E0032514E030780E4930
:2032D000087010E00D4831680C3001600BE03088608208E00120E668607406F16000E060A4
:2032F00001E0306820603846FDF798FD2846BDE8F081C046F00C0020880E0020F00C002046
:203310002DE9FF410E46171C014652D02A4C2B4D062906D0083404EB81046078B0420AD010
:2033300047E094F82100B04243DB05F12A0004EB810406700834E078A27890422DDC0846B8
:20335000401E08D0401E2DD13888A02831DBB0F5804F27DD2DE097F9000003F087FA8046E8
:203370004FF6FF70404524D0686802216A4601F0BBFE9DF8000040B11020ADF80800686890
:20339000ADF80A8002A903F001FE6868A5F8568001210022FFF750FF04E039788A4208DC40
:2033B000814206DC0649207832464018394600F0AFFD0090BDE8FF81447700007005002081
:2033D000CE0A00202DE9F843074637F0100018BF202F3DD1294D032085F86F000021142200
:2033F00005F1680081460B30804601F031F96978686897B1103F08D0B7F1100018D105F1C5
:20341000200420201027207011E0891C05F15404102600220FA3CFB205E0002605F14004BD
:2034300011A3142732462670062102F0DCFF214640463A4600F06CFD95F86F004A46C01960
:2034500085F86F00C0B20830C1B20620FFF758FFBDE8F8834564647973746F6E652055524A
:203470004C204D6F646500C04564647973746F6E6520554944204D6F646500C0080200204B
:203490002DE9B043044603F0B5FD81462748221892F8F010491ECFB2002F82F8F0703FD129
:2034B000254901EB84014A880C78904634F07F0718D1E1090FD24FF0805000F5DC75D0F876
:2034D000B8018169104688472868416B404688470228F9D11EE000EB8800D0F80411002021
:2034F000884717E04FF08055D5F8B801016A10468847D5F8B801816A40468847D5F8B80180
:20351000016B404688470A4901200860094908688008FCD304F03F00132801DAFFF7B0FFF7
:203530004846FDF77BFC0020BDE8B083AC07002028200860282008400A7500001CB52C4CAF
:2035500061680246521E084616D0521E0ED0521E08D0501E21D1002210A30846072102F073
:2035700042FF1CBD0121002211A302E0002116A30A4621700146F0E70022072116A32270D9
:2035900002F031FF4FF448706A46ADF8000002200146FFF7B5FE01F0FFFD1CBD42435F539A
:2035B000746174653A57616974696E6700C046C042435F53746174653A416476657274698C
:2035D00073696E6700C046C042435F53746174653A49646C6500C04642435F5374617465DC
:2035F0003A496E697469616C697A656400C046C008020020F8B5064603F0FCFC264D074677
:20361000711991F8F000421C002881F8F0203ED1224C04EB8604267806F03F00132801DAA9
:20363000FFF7E8FF648836F07F0018D1F0090FD24FF0805000F5DC75D0F8B8014169204663
:2036500088472868416B204688470128F9D11EE005EB8405D5F804110120884717E04FF0A8
:203670008055D5F8B801C16920468847D5F8B801416A20468847D5F8B801C16A2046884734
:20369000074901200860074908688008FCD33846FDF7C4FB0020F8BDAC0700200A750000D2
:2036B00028200860282008402DE9FF41284B4768866814460D4601A81A68998802609B79E5
:2036D0008180A5428371A8BF2C1CB168786803F010FB78BB4FF00008CDF80080F068318A86
:2036F0006D1C16A22B4603F052F9A41C0246AC4213D9641BF06801A90B68801803608988E8
:203710008180308A921D801A082804D23868F16803F019FC4246641EECD1F0680BA1098832
:20373000801801803868F168921C03F00CFC786803F06EFC0090BDE8FF81C0461B371B5BFE
:203750003130721B5B25643B256448001B3800C0A07800001D4838B50468B4F1FF3F08BFE8
:20377000002403F069FB2448244B194A002501211038056003F15C00164B01601868116089
:20379000806C80471448006820B114480068204600F03CFD124813490560134C0A686FF330
:2037B0005B4244EA0200086010490868C0F30130012806D10A680E48104040F400320A602F
:2037D00008600C4908680028FCD138BD1C13005008220443F0010010800128430001204381
:2037F0008C210840482003400000390104000940FFFFFCFC0C0068429404604200600C4000
:203810002DE9F84F1F468B46161C14BF4FF080484FF0005803F0EEFBDFF884A0002503243F
:203830008146BBF1FF3F06D15046C36F002B0CBFC06EC06F03E05846294602F01DFB40B3E8
:2038500090F83F4034F07F0422D05446E16F81420DD001463A4601F0C9FCC8B1207C012873
:2038700014D004F1D000022103F0DAFB0EE043462A4602F059F9002E14BF0A480A4802F0E2
:2038900005FE1FB1E16E3A4601F0B0FC832400E004244846FDF7C2FA2046BDE8F88FC04654
:2038B000F00C00200100020401000104BCB5284C241F04F16C05E16F28680029074644D1D6
:2038D00000283DD0684601F001FB28B1009818B1082002F0EBFABCBD082003F021F82846B4
:2038F00002F0E0FEE06707F1180003C81749C4430B1F1C601A681042FBD10A6810430860EC
:20391000F869C04341F80C0CF86951F8082C104341F8080CF868044602F0B8FD2088A0F6D5
:20393000020040B141F21E01401A04D041F6E671401A012809D80120214602F06BFEBCBDB6
:2039500004F1D000022103F06BFBBCBD14100440F40C0020F8B5064603F03EFC244A1178F8
:2039700019B1FDF75BFA012440E001241470FDF755FA214FA7F14002106EB2F8681094462F
:20399000720805D302880A43520828BF02242BD2184D05F10C0213685B0825D3EC63136881
:2039B0005B08FCD272083CBF0021818006D3848041F001012037ACF868103868B1083ABF5A
:2039D0000021C180C480F10838BF0024048103F0E6FA03F0EDFA286840F0400028602868D3
:2039F000002420F04000286003F08CFA2046F8BDE90C002000500C40900900202DE9F04176
:203A10000646B76875688846ADF1280D684603F013F800248DF8014078680690012002F08E
:203A30008BFC6860686840B101F026FF3878694601F042FF2860286808B9264617E004215E
:203A5000224603F07BFA98F80000401E08D0401E04D0401E14BF201C07A002E008A000E010
:203A700009A0A86028680AA1122203F06CFA30460AB0BDE8F081C0461B5B324B00C046C0B8
:203A90001B5B304B00C046C01B5B314B00C046C01B631B5B324A1B5B3130721B5B31313BDB
:203AB000314800002DE9F843002A8946074604D4B2F5004FB8BF95B201DB47F6FF75002F9E
:203AD00008BF002034D03888002808BF002403D02A4600F04FFB84B2AC4228D0388830B1DE
:203AF000291B484613A201F065FE001984B2B868E8B17E688EB1304603F0C0F8A5EB0408F1
:203B1000401D1FFA88F1884207D833464146484609A201F04FFE001984B2291B122906D3DF
:203B3000BB68484606A201F045FE001984B22046BDE8F8833A2000C0222573222C2000C011
:203B50006C696E652025643A200070472DE9F047DFF894A0DFF89480002501244FF002091C
:203B70001126E8B203F062F8071C38D0B87A012835D197F90900AAF10401113004FA00F023
:203B9000C2430A604A681043486097F9090004FA00F0C0B202F0C4FE07F11000002102F031
:203BB0009FFB0146812909D1B86918B1002102F097FB0146812908BF87F80A9081290ED0A8
:203BD000404600F2991297F90910137806FA01F100F5827019431170002103F021FA6D1C10
:203BF000032DBED3BDE8F0870C100440F00C00202DE9F04103F0FEF9244D214E804605F18F
:203C1000E000007848B93446A168022088470746102002F07FF977B31BE003F04FF9C009B7
:203C30001BD21B483C380068C4681648342101220023A04788B100F025FE34460020A1684D
:203C500085F8E000022088470746102002F062F98FB1A168032088470DE00B480068322106
:203C7000B1FBF0F101B901213035284603F0BAF9284603F0B9F94046FDF7D0F8BDE8F081E7
:203C90000478000000A00C406C150020AC070020E00100102DE9F0410E46071C14BF002E88
:203CB000002040D0224C4FF0FF3104F12800804603F01FF83078FE2811D022680021FF2879
:203CD00008D082422AD31F2828DA04EB8000D0F898501DBB491C16F82100FE28EFD1002061
:203CF00038607860B8603078FE2818D00125FF280FD01F280DDA7B6804EB800105FA00F0DA
:203D1000C1F898701843094978603268384601F0BDFF16F8040FFE28E9D100E000274046FA
:203D300003F076F93846BDE8F081C046007FC76798060020F0B520480127F84201D001F0DB
:203D50006DFB204D204F214EBD4206D203CD0478A4003459401CA047F6E71D48002800D0CF
:203D70008047164D164FBD4202D210CDA047FAE7F0BD03251BE0416808300A1C2A400BD10F
:203D90001A1C2A40AB4305D0046804300C600431043BF9D1131C05D0047801300C70013107
:203DB000013BF9D1021C2A4001D0A84304300368002BE0D17047C046FFFFFFFF0000000075
:203DD00000000000647B0000CC7B00001C7B000015C401102DE9FC4792460D468268446812
:203DF0009168D768B2F810806068994602F081FF0028504632D1FF2D10D0401CA8F1020163
:203E10006B1C009016A2384602F0C1FD0646A06828B10168F019361D016000E000260A9B97
:203E3000A8EB0601F0194A46891E03F0FDF8FF2D064406D10D22701C0A21BA55461C39547F
:203E500004E00BA00188F519B61C298020683946324603F078F8606803F0DAF8BDE8FC871A
:203E70001B371B5B3130721B5B25643B256448001B3800002DE9F84F81460020C9F8000034
:203E9000684601F023F8204FDFF880A000264FF0FF354FF0190B34468046E0B202F0C6FE6E
:203EB000B8B1837AABB1017A0126022915D079684A8A4069C968891897F89A210BFB0211EB
:203ED00002F0F8F951460968B0FBF1F0854288BF051C641C032CE0D300E00025B8F1000F0D
:203EF00004D0012E05D0B8F1010F05D0012E04D005E00098854200D9009DC9F8005046EA4E
:203F10000806F0B2BDE8F88FF00C00206C150020002A4AD05FEA000C8B071CD1830722D163
:203F3000102A08D370B4103A78C978C0103AFBD270BC103238D0042A2CD3082A05D30C2A7B
:203F500024BF08C908C008C908C008C908C092072AD0920F22E00B780370491C401C521E46
:203F700022D08B07F7D1C30714D18307D8D0121F12D308C903801B0C4380001D121FF8D298
:203F90000AE008C903701B0A43701B0A83701B0AC370001D121FF4D2121D05D00B7803708D
:203FB000491C401C521EF9D160467047FEB584684668206802F0BAFB216820488A6B1040E7
:203FD000886340F2F27120681D4D416494F82000295C94F82100401980790843216848630B
:203FF000684602F0FBFF317F05EB81012068B2690B6A717F05EB810189691943B37F05EB0B
:2040100083052B6B0B43019902F06EFB2168C86A40F01000C8622168086B40F00100086372
:20403000A07D0027FF2802D0E07DFF2800D11FB1086B40F440400863FEBDC0460DF8FFFFB8
:20405000E8750000B0B5456884682349607DA27DADF1180D40F000400090207D0027FF2ADD
:2040700041EA000001904FF0020002D0E27DFF2A00D13FB1E37DA07D1943039140F000403B
:2040900002900420FE214DF8201005F154006946FFF700FE2866002808BF381C1AD0617D40
:2040B0000F2202F005F8286E217D102202F000F8A17D3846FF2902D0E27DFF2A00D140B1A0
:2040D000286E112201F0F4FF286EE17D122201F0EFFF012006B0B0BD0000C0A02DE9F84327
:2040F0002020EFF3118780F31188214CA068012103F06EF84FF001094FF000086569216813
:20411000A4F81C906A1A2168A4F81E80461B401A904227D387F3118840462D18361A4846BD
:20413000294603F051F8B042F7D92021EFF3118781F31188E18B012903D14046294603F0E8
:2041500043F8B0F1FF3F06D0A169801B814238BF081C291801E0A069411903F031F8A4F89F
:2041700020902560A4F81C8087F31188BDE8F883780100207FB503461F480D4601881F48CF
:204190000088144614A6984205DB32462146284601F010FB1EE0994206DB184602F076FBF5
:2041B0000028F2D04268F1E715480088002808BF0CA2EBD00095002C48BF47F6FF74114E6F
:2041D00000201149ADF804406A46346802901846A047029800907FBD7B6D6F64756C6523BF
:2041F00025647D007B6D6F64756C652D726F70653A25787D00C046C0567500005678000012
:20421000FE120000E0780000A1630000204A2DE9F04180460124A2F130000460194807688F
:20423000002FFCD01B49184DC0200B1F28601868800806D253F8040C144B000C40F0F00052
:20425000187000204FF080571060D7F8F0010E68016830468847D7F8F001426831464046D5
:204270009047D7F8F001816830468847D7F8A001C1680220884740202860074E3460BDE869
:20429000F081C0469402224300600C405662084040100940B43F0050940460422DE9F84389
:2042B0008146EFF31188202080F311881E4D1A4C184F012605F11C000660A4F1140006607A
:2042D000F86A016A14208847D9F81000810C14BF000C0420206038680268232100209047C8
:2042F0000E480F4F0660386800280CBF311C03210C4807680FB141F00401183C206820F4E7
:20431000E02040EA014020602E6088F31188BDE8F883C046840100101820094080022443DB
:20433000A8780000AC780000000024432DE9F04106467468B56802F05DFE8046A06A58B908
:2043500028688169090907D2006B400A04D24046FCF764FDBDE8F08104F5827002F046FE4C
:2043700000274046A762FCF759FDA97D3846FF2902D0E97DFF2900D118B12046294600F0A3
:20439000E5F802F037FE2A68916B21F0200191632A68116B21F480711163FCF73FFD04F2A8
:2043B000291002F013FA606A216A091A21622369626A30469847BDE8F0817047F8B5041D72
:2043D00014F003001CBF241A241D02F0D3FA1D4A054657691561102C88BF9769386800237F
:2043F0001E46010821D226B9844209D93B4601261EE0196809188C42196019D81F46084693
:20441000DFB1D169001B042807D23868091AD161386840F00040386005E0385144F0004023
:204430003860091BD1613F1D07E080F0004000263F1838680028D4D10027284602F097FB88
:204450003846F8BDC008002070B506467468B568206E02F02BFA29681A488A6B10408863FF
:20447000002020703046FFF761FF304600F0FCFF2968C86A20F01000C862296812480A6BE2
:20449000104008636868FEF7FBFF04F17C0002F0AFFD04F1980002F0BDFDA07818B904F16C
:2044B000CC0002F0B3FD607818B904F1E80002F0ADFD04F5827002F08FFD04F1680002F0A4
:2044D00055F970BD0DF8FFFFFEFCFFFFB0B51E4C241FE06F04F16C0570B32869806902F000
:2044F0006FFA0746286900233A4601F01DFBB80806D20FB328694FF48041C4F8800017E097
:204510002869104F8269396822F00202914339602969CA6957F8083C23EA020147F8081CC1
:20453000296905F1080002F0CEF800200221286104F1D00002F074FDFFF708FBFFF7B6F991
:20455000B0BDC04614100440F40C002038B50C46054602F04FFD2268916B21F020019163DC
:20457000FCF75CFC286E217D012200F0C7FF286E217D012201F0A6FB286E217D002201F0A3
:2045900097FD286EA17D002201F092FDA878012806D005F1CC004FF0FF3102F0AAFB03E057
:2045B000216888690009FCD2286E217D102201F07FFDA17D0020FF2902D0E27DFF2A00D136
:2045D00018B1286E112201F073FD38BDF8B5074602F010FD04467FB3B87A68B397F9092068
:2045F00002F0E4F8012303FA02F1CDB248B1144E113203FA02F0326882433260C34346F888
:20461000043C0020B8610346BB723B7207F110063B60024686E80C000A4A7B6002F5CC7021
:2046300003781943017092F89A0110B1401E82F89A01284601F03AFC2046FCF7EFFBF8BD3C
:204650000C100440F00C0020002213460A46194671B510F0030F0BD0002A82BF00F8011B12
:20467000B2F1010210F0030FF6D1002A08BF71BD11F0FF0141EA0121042A18D341EA0141B8
:20469000082A0FD30E46102A08D30C460D46B2F10F0312F00F0272C0103BFCD812F0080FB6
:2046B00018BF42C012F0040F18BF40F8041B12F0020F18BF20F8021B12F0010F18BF017055
:2046D00071BD7047F8B5184C207801282BD0174E012026F00306164B2662226A207004F179
:2046F00024050020314662629B1B2F68A362F61801E041F8040B8E42FBD8991002EB8101E2
:2047100023F0030341F8040CE8213960EC3BC2F8E830E8326261FFF751FEA0612868606118
:20473000A06A001FE061F8BDC00800207515002000400020B0B51A4C0546241D2068000475
:20475000070C27D01448006800688047134991F90720824205DD10F1800FB8BF6FF07F00B4
:20477000C871BD422CBF01277F1B8D88BD4210D80A68D4F8D40F801A801C1F2888BF1F2024
:204790007F1B4008C7404FF6FF70EF19B84238BF071C8F80B0BDC046EC010010601500203C
:2047B00030100940174810B50068016804208847022821D003281FD001281AD0124800686E
:2047D000C0F38150032805D002280CBF41F28832322201E04FF47A720C490D4C09684C3460
:2047F0002046B2FBF1F102F0FDFB204602F0FCFB10BD01F0D5F910BD01F0D2F9022001F053
:2048100021FB10BDE0010010B43F00506C150020B40700202DE9F8430024002B16460F469E
:204830008046254606D5002FC3F1000302D57F42761E2D2599463846494601F05DF80CA01A
:20485000405CB7FBF9F7002F04F1010408F8010DF1D1A64205DD3021301B401E08F8011D2F
:20487000FBD10DB108F8015D4046BDE8F883C0463031323334353637383961626364656632
:204890000000704738B54FF08055D5F8E001016801208847012822D0D5F8A401C468114837
:2048B000342101220023A047002808BF002017D0D5F8800001F026FED5F88C01C06A8047C3
:2048D0000A4A094C93681168D060C01AA1EB910104FB00F3180C884228BF011C116001200D
:2048F00038BDC04600A00C4040420F003815002098B5164C94F8E100002710B914480078E3
:2049100060B102F077FB94F8E310002906BF012184F8E3100127FCF781FA0FB1002098BD49
:20493000022001F0DDFB0E20FEF764FE094A106848B909494020C86008600127D761002069
:2049500084F8E20098BD012098BDC046AC0700201978000004800C402C500C40012898B5A6
:2049700027D116480068016801208847012820D001F03EFE134C012104F1D800017002F019
:204990009DFA800917D20E4800683222B2FBF0F707B90F46083C04F1300002F027FB04F1D1
:2049B0003000394602F01EFB04F1300002F01CFB01E000F033FE002098BDC046E001001091
:2049D0006C150020B4070020164880B507683FB315498B6803EA5300C00E21D2134A106830
:2049F00080081DD2486880081AD21068096810F0050F4FEA114101F0F00101F5E0710AD180
:204A1000B9420DD2190F38BF40F00100D90E38BF40F0040003E0B94202D920F0050010600C
:204A300080BDC04628500940AC3F00500000094010B502F0DFFA1349097802291AD0FCF769
:204A5000EDF911480068006B8047104A002302F023F80F4C4FF090531B1820684FF07A04EE
:204A70004FEA000244EB010400215B1844EB0204241C04E0074990390C68FCF7CFF920461C
:204A900010BDC046000D00208C01001000093D003415002094300440F8B5184C1548E76FEE
:204AB00002F052F91449054608680E6800F02000284006F460260DD067B10300C4F880707F
:204AD0000022384601F030F804F1D0004FF4804102F0A6FA16EA05000AD094F8991141EA72
:204AF000504084F89901002104F5827002F098FAF8BDC04620000E000C100440F00C00200B
:204B1000F8B5844640F6FF741CF8013B002210E0481B401E10F8015B7F1E01F8015BF9D122
:204B300003E01CF8010B01F8010B521C5B08082AEADA5808F5D21CF8010B1CF8015B05F0EA
:204B50000F07FF1CC5F30315122F45EA001508D11CF8016B300A24BF1CF8010B60F3DF16E1
:204B7000BF19AC42D4D1F8BD2DE9F0411E46174602F062FA154CA16800258046022015EA39
:204B9000060300EA070008BF002808D14FF0E04305EA070033400CBF0028257011E0284691
:204BB0008847207801280CD10320FDF7C9FD40B12570404602F044FAA16815208847BDE8AD
:204BD000F081404602F03CFABDE8F0812C0C0020FEB50188B1F5C15F18BF012024D1C6691A
:204BF00041698769124B03240296ADF10405009103F1080000680197C0F3036655F8047FCF
:204C10007FB10A4938464FF0FF32052301F052FC052806DA8100785820F4702040EA06403A
:204C30007850641EEAD10020FEBDC0460200F8444C1300503EB5401E4FF000040AD0401EC5
:204C500004D0401E1DD1FDF747F81AE0FFF750FE044616E0684602F067F920460C4D01941F
:204C700001226B468DF800000749029005F1780000F010FB054A2C21234605F19C0000F0F9
:204C90009BFE20463EBDC046814E000059080000AC070020164838B5017C022923D00446D1
:204CB000207C012822D002F0A5F905466846FFF7E1F880B1009949B904F1880002F096F90B
:204CD00004F1D000042102F0ABF908E004F1880001F058FF03E004F1880002F087F9284657
:204CF000FCF79CF838BD192002F088F938BDC046F00C00202DE9F8431C4690460D4606463D
:204D100002F098F9814604F10A0001F08FFA071C05D1484602F092F91320BDE8F8834846DB
:204D300002F08CF93E72B8F1000F7D7205D007F10A0041462246FFF7EBF8054CE0680068F5
:204D5000394602F039FAA06880470020BDE8F883B80A0020F8B50646B08815460F46FFF7D7
:204D700009FA0446002D02D4281B0A2806DB3368291B38460CA200F01DFD2418B0890128CA
:204D90000FD1002D06D4B06801F078FF291B401D884206DCB368291B384604A200F00AFDD5
:204DB00024182046F8BDC046257000C02827257327290000F8B5054602F030F90746AE6884
:204DD0006868790804460BD300F5947001F0FEFC606B216BE368091A2163626B2846984703
:204DF000B80815D304F2291001F0F0FC3168886B20F0200088633168086B20F480700863CD
:204E1000606A216A091A21622369626A28469847F8BD70472DE9F04106465FEA010808BFCA
:204E3000DFF8408010480078C8B1104C07460025B54204D02068C0698047064209D02068C8
:204E500040684146024620469047002818BF201C06D17F1E04F10C0405F10105E8D1002005
:204E7000BDE8F081557800004C780000687800001348144A14490078801E0A2807D8DFE897
:204E900000F019140F06140F06140F0607C0FEE710688008FCD250688008FCD2FCF71CBF28
:204EB00008688008FCD3FCF717BF08688008FCD2FCF712BF10688008FCD3FCF70DBFC04634
:204ED0009008002034600C4038600C40154AB0B5054602F15C000768E7B1F868007B0124E1
:204EF00000F00F00022818BF002015D13969F8684B8AC9688068103AC91892F89A311922F1
:204F100002FB031101F0D6F9054909682860B0FBF1F001E00020044628602046B0BDC04631
:204F30006C150020000D002038B54FF0FF3001F047FD134C0F490546241F606981420ED153
:204F50000D4904F13400002202F05AF80220207400F0D4FE18B9FEF7F9FDFEF7A7FC074841
:204F7000284205D004F1D0004FF0005102F058F838BDC0466D0B0000DD4400000200004075
:204F9000F40C00201549096821280ADC212819D00C380FD00D380FD0001F0FD0C01E0FD0AF
:204FB0001AE0253810D0001F10D0401E10D0401E10D011E008687047486870478868704709
:204FD000C8687047086970474869704788697047C8697047086A704700207047F0010020A9
:204FF0001CB5144C21690A22491CB1FBF2F050432161081A082804D060B9A078FEF7E2F98B
:2050100007E01E208DF80400012101AA0520FEF777F9216900916068002202A3052101F0BA
:20503000E2F91CBD256420416476277320646F6E6500C0460802002038B50C4620B141689F
:205050000122A240114201D1022038BD914341600E480025031900EB8401C1F8985003F1EE
:2050700044010978FF291ABF806850F8211044F020410548FDF76CFD20464FF0FF3101F0F3
:2050900065FB284638BDC046007FC76798060020084608B500F0005100F00400084317D05A
:2050B0000C4800680168012088470C4A012809D009490968104632227430B2FBF1F101F0E2
:2050D00061FD08BD074910460160054801F054FE08BDC046E00100106C150020040D002078
:2050F000241500206D0B0000F8B516460C4601F081FF1149832524B1641E16D0641E0CD066
:2051100009E001F17C021768002F08BF80250FD0C96F898F0BE003250AE0103109780022FC
:20513000022908BF0122327002E0044909783180FBF774FE2846F8BDF00C0020880E0020EE
:20515000024670B5084611464D6820381FD0401E1AD0401E18BF6FF001001CD18C6801F082
:2051700049FF0646206801F06EFEB0F1FF3FF9D100246C64286C401EA864EC643046AC6336
:20519000FBF74CFE204670BD0021084601E00121002085F82D1070BD08B5104A104B117BB9
:2051B000527B6846C918FEF7B3FE0E489DF9001080F841109DF9001080F855108078FEF7A8
:2051D00001F909490878012818BF022804D1002048800320FDF740FC08BDC0464477000033
:2051F000CE0A002008020020FC0B00202DE9F843124D6C352C689046002600E02468D4B184
:20521000A142FBD105F10809276874B1204600224FF0805300F088FC2846214601F0D6F971
:205230004846214601F04FFA761CB8F1000F18BF5FEA0704E8D13046BDE8F883F00C00204F
:2052500038B5134C0222E11D0A6308688008FBD20D490C4A08890D4B10808D88186855800F
:205270000021418001F09EFE01F0ECFE054601F0ABFE6B202B2320702846237001F0E4FEB2
:2052900038BDC04668150020EA000E40B009002005500C40F0B515460E4604461F1CADF13D
:2052B000240D08BF00230DD0684600212422082301F07EFF3B78ADF81030B86806907A6808
:2052D00005926B46204631462A4601F06DFF0348034F0168204609B03960F0BDCC7800001D
:2052F0006C15002070B540680C46054600F5827001F07CFE0D486A7F0168287F8018AA6948
:20531000C01D80B244430A4805F582766043B0FBF2F008186330B0FBF1F1491C304601F067
:2053300061FE304601F060FE70BDC0466C15002040420F0098B511490F4A0B6802F110005E
:20535000036089888180537D1F4602460520114611F8014B401E44EA070704EA0303F7D124
:20537000002F18BFFF2B05D1054910460A6802608988818098BDC046B80A0020D03F0050F1
:20539000E8120050042838B51CD1104C04F18800054601F0C9FCA8B1284601F021FE0A49A9
:2053B00009684843B0F5967F0CD2284601F01EFE052000F095FE2046012141770421D030C1
:2053D00001F02EFE002038BD6C150020F00C0020F8B501F0CFFA104900252F463E462C467E
:2053F0008B69086112E0110809D21FB914461D4601270AE02968A4188918296005E082F0E5
:2054100000420027B44288BF261C9B181A68002AE9D101F0ACFBF8BDC0080020F8B506464D
:205430000F4D104F7388002417E0A20002EBC402921951689068D26852B9AF420BD00A7847
:2054500055F822200346491C08461946904701E0FEF75EFD7388641CA4B2A342E5DCF8BD1E
:205470001C7B0000287B0000F8B505466C68AE6801F0C0FD31680746886B20F4FA60886320
:2054900004F5947001F0A2F9A06B18B93846FBF7C5FCF8BD0020A063616B206B401A20635A
:2054B0003846FBF7BBFCE368216B626B28469847F8BDFEE7F8B505460C46042000F0B6FE18
:2054D000C0B105800C4984708E68CC6807460C2000F0ACFE011C0AD08F60204601F06CFE99
:2054F00046B130464FF0804101F05AFEF8BD384601F0AEFAF8BDC0460802002038B50D46F5
:205510000E49144664390A68AA4205D301EB8501D1F89810884201D0022038BD01F06AFD0A
:20553000074B103B1A68AC400121A9408A4314431C60FBF773FC002038BDC046FC06002007
:20555000E020024000B5002124220823ADF1240D684601F02DFE0020069005900849ADF8D8
:205570001000096808484FF47A72B2FBF1F1C82289B24A4303496B4601F016FE09B000BD62
:20559000CC780000D96B00004C0A002098B50C4601F07CFC002700B101270C480068C06A0F
:2055B0008047211AB1F1004F08D8011B891DC90F05D1801DA04288BF041C00E0841D0448E5
:2055D00004600FB901F068FC98BDC0468C0100101820094098B50146486889680968896929
:2055F000C1F3C0070C490A6827B99830022101F017FD98BD4FF4FA71B1FBF2F3012B8CBF7E
:20561000B1FBF2F1012100F58274204601F0EAFC204601F0E9FC98BD6C15002038B50E4D27
:20563000D5F860014268002103209047D5F8600101680120884710B1286800F063FFD5F870
:205650000C01C06A8047054CD5F86C31083C606018688047206138BD8000001040150020BB
:2056700038B50D46044601F0C5FC6368A1688B4204D1FBF7D3FB4FF0FF3038BDE168491C97
:20569000B1FBF3F25A432368891ACD54E1606269A168491C8A42A16038BF6161FBF7BEFBD2
:2056B000A06838BD0C4885460C4885446F4607208743BD460A486F4607600A48002803D03D
:2056D0007946491D8E460047FEF734FB01F0D8F901F062FDFEE7C0460040002000040000F5
:2056F000D80C00202D6F0000002944BF0020704704B54FEA41024FEA5252B2F54072FF3A53
:2057100044BF002004BDD2F11F020CD34FEAC12141F00041D1400B2A3EBF153220FA02F2AD
:205730001143084604BD0020401E04BD38B50F4B53F8142CA0F1080403216500A9408A4309
:205750000221A940114343F8141C0121A14053F8184CCA4314400C4343F8184C1C68224087
:2057700011431960196801F0A3F938BD18200C4070B501F061FC0D4D06462878012810D102
:205790000B4CB4F90010002906DD6068002201F068FB6FF001002080E86801F05BFA0020E5
:2057B0002870304601F04CFC70BDC0462C0C0020700500200CB4F0B505AF061C0C4627F0CE
:2057D0000303ADF1040D03F1040304D03068002818BF051C00D100253A68284601F024FB67
:2057F000844298BF601E15B131680918316001B0BDE8F04002B070472DE9F04101F00EFCBC
:205810000C4D002401278046643D05F1980607FA04F018EA000F06D056F8240018B1026857
:205830000AB1214690472868641CE4B28442EED9BDE8F081FC06002070B501F0DBFB0646BC
:205850000B48E030007850B10A483C380068C56806480024342101222346A84700B10124E9
:205870003046FBF7DBFA204670BDC04600A00C40AC070020E0010010B0B501F0BBFB05463B
:205890000A48017801290DD00121094F0170387840B1084C074620688168204688470C3413
:2058B0007F1EF8D12846FBF7B9FAB0BDEB0C002053780000807800000B4A08B51278002359
:2058D0007AB10A4A127882420BDD01B90849094B0246900000EBC200C0180268D2689047CC
:2058F0000346184608BDC046EB0C00205378000068770000807800001CB50A1C17D000236C
:205910000124E407A04238BF041C944201D95200FBE790425B41904228BF801A914201D223
:205930005208F6E7191C021C081C111C1CBD00B1C843FEF7A6FF1CBDF8B501F029FC002889
:2059500008BF002013D00A480768002F0DDD0948046800250020294601F0A4F90646B06830
:20597000A0476D1C7F1E7060F4D14FF0FF30F8BDB0780000C478000038B5054601F05CFB6E
:205990000446152D0ED001208DF8005003216A460346FFF7AFF90749488830B1401E80B24B
:2059B000488010B90220FDF757F8204601F048FB38BDC046FC0B0020F0B514460D46064687
:2059D0001F1CADF1340D08BF00230DD0684600213022082301F0D8FB7B6808933868059013
:2059F0003A7AADF818206B4630462946224600F0F5F80DB0F0BDB0B50D46044601F0FAFADA
:205A1000A76897B121692268515C297063682169A768491CB1FBF3F25A43891A2161791E12
:205A3000A160FBF7FBF9A068B0BDFBF7F7F94FF0FF30B0BD70B506462820ADF1280D00F0C1
:205A5000F5FB041C12D0684600212422082301F0AFFB251D012000220690314605926B468F
:205A7000ADF81020284601F09FFB256020460AB070BDFEE700B500213C220823ADF13C0D4B
:205A9000684601F07DFB084800F5887107914FF41671089101210691044900236A46C030DD
:205AB00001F06AFB0FB000BD080200203D00000001460D4838B5D0F8EC3202681B3901FB74
:205AD00001F4120618060016121604FB00F543F307204843C010614300EBA5204A4300EBD5
:205AF000A24000EB234038BDA41000500C49086820F0020040F4007008600A48032140F8DC
:205B1000041C41F230018160012101605022826001604FF4CA628260016040F80C1C70470F
:205B3000000004600C410440F8B51C461546074601F060FA9FB107F1280106C907F12803FB
:205B500007F120062943224383E8060096E8060007F120030D4344EA020683E86000FBF7F3
:205B70005DF9F8BDB0B50C460546171CADF1280D08BF00220ED0684600212822082301F006
:205B9000F7FAFA680792386804907B680593B96806916A462846214600F0DEFE0AB0B0BD2A
:205BB0007CB54FF08056D6F8A4010B4D446800214FF040521C23032000902846A047D6F811
:205BD000A401446800214FF400720923012000902846A0477CBDC04600A00C40F8B5074637
:205BF0000A480B4C0668E0698D00285886420AD108480090384601F0B7FAE06928588642F4
:205C100018BF381C00D10020F8BDC0461812000044010020DC0B002008B5417A0C4A491ED2
:205C30000DD0491E06D0491E10D11146091D096861B108E01146086840B1804708BD11466F
:205C5000091F096811B10A300078884708BDC0460C0C002010B50C4C0020243C20700D20FB
:205C700000F0C6FF18B9207840F0080020700E2000F0BEFF18B9207840F01000207004F125
:205C9000240001F0B1FA10BD4C0A002038B50C4B1D6802F0FF04A54209D31F2C07D202F05A
:205CB000FF0403EB8403D3F89830984201D0022038BD08461146FCF74BFF002038BDC0460A
:205CD0009806002080B517460A4A643A13688B4205D302EB8102D2F89820904201D002209B
:205CF00080BD002207B101220348E0384254002080BDC046FC060020E02002400C4880B511
:205D10000168886800E0384647681FB101F12002BA42F8D1407B10F00F0006D1498C40F6B8
:205D30000900884208BF012000D0002080BDC046F40C00200B4810B50178ADF1280D0129B7
:205D50000ED001240470002124220823684601F007FA00216A4604488DF8184001F0FCF9AA
:205D70000AB010BDE80C0020900900202DE9F0410F46044600F08CFF04F1280292E8600065
:205D900033462A46FBF7F2FC80460B463FB131462846424600F080FE303484E803004046EF
:205DB000BDE8F08170B5044604F1280090E80C000D460021284600F06FFE04F1300292E8CD
:205DD00060002D1846EB0106290C30040143FFF7DDFB383484E8600070BD704710B5044630
:205DF00000F0C8FD0949086154F8043C23F0004344F8043CCA69D218CA614A69241F9442B1
:205E100038BF4C6100F0B3FE10BDC046C008002010B5044600F0AEFD094B0022014633F8E0
:205E30000C0F30B1A04208BFD4B203D0521C062AF5D3FF24084600F09AFE204610BDC046BC
:205E5000FC08002010B5044601F0D4F8094B083B1A1992F8E910491EC9B282F8E91021B9C6
:205E70009A680121A1408A439A60FAF7D7FF002010BDC046B4070020024608460A4910B503
:205E90000823D031B1F93C40A24206D118B191F83F40204201D0084610BD5B1E01F140011A
:205EB000F0D1002010BDC046C00D002038B5044601F0A0F8084A1178054684F0FF00014097
:205ED00011701078000903D20448082101F0A8F82846FAF7A3FF38BD70150020C00D00203D
:205EF000F8B516460F46044601F084F8054608480068A04205D13846314600F0F1F90446A9
:205F100000E003242846FAF789FF2046F8BDC046F40C002098B504460A48006880B1074673
:205F3000B868044209D0FB683A69204600219847002818BF4FF0FF3003D13F68002FEFD1CF
:205F5000002098BDAC07002000B5002130220823ADF1340D01A801F017F90020ADF81C002C
:205F7000044A00900448162101AB383801F0FCF80DB000BD3D6500009009002000B5002104
:205F900030220823ADF1340D01A801F0FDF80020ADF81C00044A009004481D2101AB1C38BD
:205FB00001F0E2F80DB000BD796A00009009002038B50B20FFF7BAFB084D094CE87A001908
:205FD000016841F0804101600A20FFF7AFFBA97A605840F08040605038BDC0462C76000013
:205FF00000100840094910B50020094C08600120C86114342060216844F8280C0548243099
:206010000068016A14208847206810BD00002443182009408C01001038B5B1F1FF3F0446A9
:2060300008BF05212020EFF3118580F311880120054B61618840A061586901F089F8A0626E
:2060500085F3118838BDC046C801002038B50C4600F0F2FF0546A00805D3002004210246C3
:206070000346FEF747FEE00804D30448001D006800B18047284600F0E3FF38BDB80A00206E
:2060900010B504462088FFF7C3FEFF2808BF4FF0FF300AD0054B810001EBC000195811B19C
:2060B0002046884710BD6FF0010010BD100900200A4B10B51C688C4207D31F2905DA03EB0D
:2060D0008103D3F89830984201D0022010BD0846114600F03BFB002010BDC0469806002083
:2060F00038B5044600F086FF084A02F108031D680121A140A4182943196094F8E910491C81
:2061100084F8E910FAF78AFE002038BDAC07002010B5084C206880470849074B60680A6854
:2061300043F2390403FB02440C608047C4F30E4010BDC046540C00206D4EC641D40C00204C
:2061500010B501F001F800F0FBFF032000F0F4FF06481030006830B1034C204600F088FD8F
:20617000204600F082FD10BD796C0000A401002008B501F00DF8012801D000F0D9FF0748FF
:2061900000F0D2FF00F058FA00F0CAFF00F0C4FF00F0BEFF00F0B8FF08BDC04651610000AF
:2061B00030B50025ADF1240D0848009502AA01930B46294600F0A4FF041C03D002A900F0F0
:2061D0009BFC2546284609B030BDC046AC770000B0B5446885680F4608E0216B0870206BA6
:2061F000636B7F1E401C2063581C60632FB1286800F029FEB0F1FF3FEFD13846B0BD0028D5
:2062100004BF002170474CBF4042001C4FF01F014CBF41F4406141F48061491E4000FCD35E
:206230004FEA015141EA10310005704710B50446ADF1200D684600F083FC3CB1083400205B
:206250006B462146024600F057FF08B9002002E000604460083008B010BDB0B54468856806
:206270000F1C0FD0216A2868097800F0F3FD48B1206A636A7F1E00F10100206203F1010032
:206290006062EFD13846B0BD094801684BF69A120901B2EB114F07D100680B21B1EB107F3C
:2062B00014BF0020032070474FF0FF307047C0461813005038B50D460446FEF7B9FB05F52E
:2062D0007A71241AA008814203D26FF05041814201D2002038BD401B012898BF012038BDB9
:2062F00010B50C46084910310978022918BF012009D100F0CBF804B1206000F0FF00012867
:206310000CBF8120022010BDF00C002030B50D460446242208230021ADF1240D684600F075
:206330001FFF012029466A468DF81800204600F013FF204609B030BD10B504460021242268
:206350000823ADF1280D684600F00AFF01206946034A8DF81800204600F0CAFE0AB010BD29
:20637000DC0B002038B52020EFF3118580F31188064CA068002100F02BFF6169081AA169CA
:20639000814238BF002085F3118838BD7801002010B50B460446A18859B1206806A2FFF7BB
:2063B00009FAA168A3880918A160181AA080002010BD012010BDC0462573000010B58168FB
:2063D00044688968606800F094FC38B9206804A1042200F0B8FD606800F01AFE10BDC0463C
:2063F0001B5B324A00C009B490B503AFADF1040D48B103681B693C1D24F00304241D009447
:206410001C467B68A04701B0BDE8904002B0704738B50446EFF31185202080F31188A08A8C
:20643000012806D100F0E8FEE168A368081A834200D2002085F3118838BD10B50C461168B3
:2064500001290ED9491E1160016831B900F0E4FC38B1204600F0D8FC10BD0C700168491CF6
:20647000016010BD08B5FFF70FFF07498439096802464FF0FF30032A04D1C1F303310929CD
:2064900008BF082008BDC04618130050084980B5A1F108021768002FFCD1002314310B6047
:2064B0001060D769002FFCD00B60506880BDC0460810044038B50C4601466BB1091F002075
:2064D00051F8045FB5F1FF3F06D01540AC4204D05B1E00F10100F3D1FF2038BD10B50C46D5
:2064F00001461046224641B138B1C8608A6004480B6100F0E8F8002010BD6FF0020010BDF7
:20651000AC07002070B5054600F0C0FC002400B90124054E30680028FCD0A84701203060FB
:206530000CB100F0B9FC70BD00800C4010B500F03CFD0648064C007818B12046403000F05B
:20655000D3FD206800B1804710BDC046E80C002050090020B0B5456884680F4606E005F1CC
:206570003C02C1B21046FFF77BF87F1E2FB1206800F069FCB0F1FF3FF1D1B0BD80B50346B5
:2065900072B15B1E491E11F8017F13F8010F874218BFC01B05D1002F18BFB2F10102F2D184
:2065B000002080BD10B500F047FD04460648007828B10022012002211346FEF79BFB2046DC
:2065D00000F03EFD10BDC046D40A002038B50C46054600F00FFD216801B9294662684A6003
:2065F000616801B9294622680A60FAF717FC38BD10B54FF08054D4F8E00142680121032038
:206610009047D4F88C01C06A80470149086010BD401500200A46064910B54B683BB1896861
:20663000084204D003490C6801462046984710BD74780000F40C0020074808B51030006853
:2066500028B1034800F014FB024800F00EFB08BD1D680000F16A0000A4010020074810B546
:206670001030006830B1044C204600F001FB204600F0FBFA10BDC046234E0000A40100208B
:20669000074908B5283090E80C000020FBF76EF8002908BFB0F1FF3F88BF4FF0FF3008BD40
:2066B000907E000038B5054600F0A4FC2C6834B121682960216801B9294600224A60FAF7FA
:2066D000ADFB204638BD38B50C46054600F092FC0021216069686160696801B929460C6005
:2066F0006C60FAF79BFB38BD70B51C4616460D4600F01CF8E900B1FBF6F1491CCA094262B0
:20671000C1F345018162C46270BD7047064802680A6082684A60C2688A60406B20F0784045
:2067300040F08050C86070474C13005081690909FCD2C16A044B21F01001C162026B03EAD8
:20675000020101637047C046FEFCFFFF002948BF0021054A02EB8000026801F03F0122F053
:206770003F021143016070470010084038B5054600F040FC044604482946FFF727FF204619
:20679000FAF74CFB38BDC046AC0700200648054A41698A4203D0D030042100F041BCFEF7F6
